{
  "_format": "hh-sol-artifact-1",
  "contractName": "EdgeAIBridge",
  "sourceName": "contracts/EdgeAIBridge.sol",
  "abi": [
    {
      "inputs": [
        {
          "internalType": "address",
          "name": "_wEDGE",
          "type": "address"
        },
        {
          "internalType": "address",
          "name": "_admin",
          "type": "address"
        },
        {
          "internalType": "address",
          "name": "_feeRecipient",
          "type": "address"
        }
      ],
      "stateMutability": "nonpayable",
      "type": "constructor"
    },
    {
      "inputs": [],
      "name": "AccessControlBadConfirmation",
      "type": "error"
    },
    {
      "inputs": [
        {
          "internalType": "address",
          "name": "account",
          "type": "address"
        },
        {
          "internalType": "bytes32",
          "name": "neededRole",
          "type": "bytes32"
        }
      ],
      "name": "AccessControlUnauthorizedAccount",
      "type": "error"
    },
    {
      "inputs": [],
      "name": "EnforcedPause",
      "type": "error"
    },
    {
      "inputs": [],
      "name": "ExpectedPause",
      "type": "error"
    },
    {
      "inputs": [],
      "name": "ReentrancyGuardReentrantCall",
      "type": "error"
    },
    {
      "anonymous": false,
      "inputs": [
        {
          "indexed": false,
          "internalType": "uint256",
          "name": "oldFee",
          "type": "uint256"
        },
        {
          "indexed": false,
          "internalType": "uint256",
          "name": "newFee",
          "type": "uint256"
        }
      ],
      "name": "BridgeFeeUpdated",
      "type": "event"
    },
    {
      "anonymous": false,
      "inputs": [
        {
          "indexed": false,
          "internalType": "uint256",
          "name": "minAmount",
          "type": "uint256"
        },
        {
          "indexed": false,
          "internalType": "uint256",
          "name": "maxAmount",
          "type": "uint256"
        }
      ],
      "name": "BridgeLimitsUpdated",
      "type": "event"
    },
    {
      "anonymous": false,
      "inputs": [
        {
          "indexed": true,
          "internalType": "address",
          "name": "recipient",
          "type": "address"
        },
        {
          "indexed": false,
          "internalType": "uint256",
          "name": "amount",
          "type": "uint256"
        },
        {
          "indexed": false,
          "internalType": "uint256",
          "name": "fee",
          "type": "uint256"
        },
        {
          "indexed": false,
          "internalType": "string",
          "name": "edgeaiTxHash",
          "type": "string"
        },
        {
          "indexed": true,
          "internalType": "uint256",
          "name": "recordIndex",
          "type": "uint256"
        }
      ],
      "name": "BridgeToEVM",
      "type": "event"
    },
    {
      "anonymous": false,
      "inputs": [
        {
          "indexed": true,
          "internalType": "address",
          "name": "sender",
          "type": "address"
        },
        {
          "indexed": false,
          "internalType": "uint256",
          "name": "amount",
          "type": "uint256"
        },
        {
          "indexed": false,
          "internalType": "uint256",
          "name": "fee",
          "type": "uint256"
        },
        {
          "indexed": false,
          "internalType": "string",
          "name": "edgeaiAddress",
          "type": "string"
        },
        {
          "indexed": true,
          "internalType": "uint256",
          "name": "recordIndex",
          "type": "uint256"
        }
      ],
      "name": "BridgeToEdgeAI",
      "type": "event"
    },
    {
      "anonymous": false,
      "inputs": [
        {
          "indexed": false,
          "internalType": "address",
          "name": "oldRecipient",
          "type": "address"
        },
        {
          "indexed": false,
          "internalType": "address",
          "name": "newRecipient",
          "type": "address"
        }
      ],
      "name": "FeeRecipientUpdated",
      "type": "event"
    },
    {
      "anonymous": false,
      "inputs": [
        {
          "indexed": false,
          "internalType": "address",
          "name": "account",
          "type": "address"
        }
      ],
      "name": "Paused",
      "type": "event"
    },
    {
      "anonymous": false,
      "inputs": [
        {
          "indexed": true,
          "internalType": "bytes32",
          "name": "role",
          "type": "bytes32"
        },
        {
          "indexed": true,
          "internalType": "bytes32",
          "name": "previousAdminRole",
          "type": "bytes32"
        },
        {
          "indexed": true,
          "internalType": "bytes32",
          "name": "newAdminRole",
          "type": "bytes32"
        }
      ],
      "name": "RoleAdminChanged",
      "type": "event"
    },
    {
      "anonymous": false,
      "inputs": [
        {
          "indexed": true,
          "internalType": "bytes32",
          "name": "role",
          "type": "bytes32"
        },
        {
          "indexed": true,
          "internalType": "address",
          "name": "account",
          "type": "address"
        },
        {
          "indexed": true,
          "internalType": "address",
          "name": "sender",
          "type": "address"
        }
      ],
      "name": "RoleGranted",
      "type": "event"
    },
    {
      "anonymous": false,
      "inputs": [
        {
          "indexed": true,
          "internalType": "bytes32",
          "name": "role",
          "type": "bytes32"
        },
        {
          "indexed": true,
          "internalType": "address",
          "name": "account",
          "type": "address"
        },
        {
          "indexed": true,
          "internalType": "address",
          "name": "sender",
          "type": "address"
        }
      ],
      "name": "RoleRevoked",
      "type": "event"
    },
    {
      "anonymous": false,
      "inputs": [
        {
          "indexed": false,
          "internalType": "address",
          "name": "account",
          "type": "address"
        }
      ],
      "name": "Unpaused",
      "type": "event"
    },
    {
      "inputs": [],
      "name": "DEFAULT_ADMIN_ROLE",
      "outputs": [
        {
          "internalType": "bytes32",
          "name": "",
          "type": "bytes32"
        }
      ],
      "stateMutability": "view",
      "type": "function"
    },
    {
      "inputs": [],
      "name": "MAX_FEE",
      "outputs": [
        {
          "internalType": "uint256",
          "name": "",
          "type": "uint256"
        }
      ],
      "stateMutability": "view",
      "type": "function"
    },
    {
      "inputs": [],
      "name": "PAUSER_ROLE",
      "outputs": [
        {
          "internalType": "bytes32",
          "name": "",
          "type": "bytes32"
        }
      ],
      "stateMutability": "view",
      "type": "function"
    },
    {
      "inputs": [],
      "name": "RELAYER_ROLE",
      "outputs": [
        {
          "internalType": "bytes32",
          "name": "",
          "type": "bytes32"
        }
      ],
      "stateMutability": "view",
      "type": "function"
    },
    {
      "inputs": [],
      "name": "bridgeFee",
      "outputs": [
        {
          "internalType": "uint256",
          "name": "",
          "type": "uint256"
        }
      ],
      "stateMutability": "view",
      "type": "function"
    },
    {
      "inputs": [
        {
          "internalType": "uint256",
          "name": "",
          "type": "uint256"
        }
      ],
      "name": "bridgeHistory",
      "outputs": [
        {
          "internalType": "address",
          "name": "user",
          "type": "address"
        },
        {
          "internalType": "uint256",
          "name": "amount",
          "type": "uint256"
        },
        {
          "internalType": "uint256",
          "name": "fee",
          "type": "uint256"
        },
        {
          "internalType": "uint256",
          "name": "timestamp",
          "type": "uint256"
        },
        {
          "internalType": "string",
          "name": "targetAddress",
          "type": "string"
        },
        {
          "internalType": "bool",
          "name": "isIncoming",
          "type": "bool"
        }
      ],
      "stateMutability": "view",
      "type": "function"
    },
    {
      "inputs": [
        {
          "internalType": "uint256",
          "name": "amount",
          "type": "uint256"
        },
        {
          "internalType": "string",
          "name": "edgeaiAddress",
          "type": "string"
        }
      ],
      "name": "bridgeToEdgeAI",
      "outputs": [],
      "stateMutability": "nonpayable",
      "type": "function"
    },
    {
      "inputs": [
        {
          "internalType": "uint256",
          "name": "amount",
          "type": "uint256"
        }
      ],
      "name": "calculateFee",
      "outputs": [
        {
          "internalType": "uint256",
          "name": "",
          "type": "uint256"
        }
      ],
      "stateMutability": "view",
      "type": "function"
    },
    {
      "inputs": [],
      "name": "feeRecipient",
      "outputs": [
        {
          "internalType": "address",
          "name": "",
          "type": "address"
        }
      ],
      "stateMutability": "view",
      "type": "function"
    },
    {
      "inputs": [
        {
          "internalType": "uint256",
          "name": "index",
          "type": "uint256"
        }
      ],
      "name": "getBridgeRecord",
      "outputs": [
        {
          "components": [
            {
              "internalType": "address",
              "name": "user",
              "type": "address"
            },
            {
              "internalType": "uint256",
              "name": "amount",
              "type": "uint256"
            },
            {
              "internalType": "uint256",
              "name": "fee",
              "type": "uint256"
            },
            {
              "internalType": "uint256",
              "name": "timestamp",
              "type": "uint256"
            },
            {
              "internalType": "string",
              "name": "targetAddress",
              "type": "string"
            },
            {
              "internalType": "bool",
              "name": "isIncoming",
              "type": "bool"
            }
          ],
          "internalType": "struct EdgeAIBridge.BridgeRecord",
          "name": "",
          "type": "tuple"
        }
      ],
      "stateMutability": "view",
      "type": "function"
    },
    {
      "inputs": [],
      "name": "getBridgeStats",
      "outputs": [
        {
          "internalType": "uint256",
          "name": "_totalBridgedToEVM",
          "type": "uint256"
        },
        {
          "internalType": "uint256",
          "name": "_totalBridgedToEdgeAI",
          "type": "uint256"
        },
        {
          "internalType": "uint256",
          "name": "_totalFeesCollected",
          "type": "uint256"
        },
        {
          "internalType": "uint256",
          "name": "_totalRecords",
          "type": "uint256"
        }
      ],
      "stateMutability": "view",
      "type": "function"
    },
    {
      "inputs": [
        {
          "internalType": "bytes32",
          "name": "role",
          "type": "bytes32"
        }
      ],
      "name": "getRoleAdmin",
      "outputs": [
        {
          "internalType": "bytes32",
          "name": "",
          "type": "bytes32"
        }
      ],
      "stateMutability": "view",
      "type": "function"
    },
    {
      "inputs": [
        {
          "internalType": "address",
          "name": "user",
          "type": "address"
        }
      ],
      "name": "getUserBridgeHistory",
      "outputs": [
        {
          "internalType": "uint256[]",
          "name": "",
          "type": "uint256[]"
        }
      ],
      "stateMutability": "view",
      "type": "function"
    },
    {
      "inputs": [
        {
          "internalType": "bytes32",
          "name": "role",
          "type": "bytes32"
        },
        {
          "internalType": "address",
          "name": "account",
          "type": "address"
        }
      ],
      "name": "grantRole",
      "outputs": [],
      "stateMutability": "nonpayable",
      "type": "function"
    },
    {
      "inputs": [
        {
          "internalType": "bytes32",
          "name": "role",
          "type": "bytes32"
        },
        {
          "internalType": "address",
          "name": "account",
          "type": "address"
        }
      ],
      "name": "hasRole",
      "outputs": [
        {
          "internalType": "bool",
          "name": "",
          "type": "bool"
        }
      ],
      "stateMutability": "view",
      "type": "function"
    },
    {
      "inputs": [],
      "name": "maxBridgeAmount",
      "outputs": [
        {
          "internalType": "uint256",
          "name": "",
          "type": "uint256"
        }
      ],
      "stateMutability": "view",
      "type": "function"
    },
    {
      "inputs": [],
      "name": "minBridgeAmount",
      "outputs": [
        {
          "internalType": "uint256",
          "name": "",
          "type": "uint256"
        }
      ],
      "stateMutability": "view",
      "type": "function"
    },
    {
      "inputs": [],
      "name": "pause",
      "outputs": [],
      "stateMutability": "nonpayable",
      "type": "function"
    },
    {
      "inputs": [],
      "name": "paused",
      "outputs": [
        {
          "internalType": "bool",
          "name": "",
          "type": "bool"
        }
      ],
      "stateMutability": "view",
      "type": "function"
    },
    {
      "inputs": [
        {
          "internalType": "address",
          "name": "recipient",
          "type": "address"
        },
        {
          "internalType": "uint256",
          "name": "amount",
          "type": "uint256"
        },
        {
          "internalType": "string",
          "name": "edgeaiTxHash",
          "type": "string"
        }
      ],
      "name": "processBridgeToEVM",
      "outputs": [],
      "stateMutability": "nonpayable",
      "type": "function"
    },
    {
      "inputs": [
        {
          "internalType": "bytes32",
          "name": "",
          "type": "bytes32"
        }
      ],
      "name": "processedHashes",
      "outputs": [
        {
          "internalType": "bool",
          "name": "",
          "type": "bool"
        }
      ],
      "stateMutability": "view",
      "type": "function"
    },
    {
      "inputs": [
        {
          "internalType": "bytes32",
          "name": "role",
          "type": "bytes32"
        },
        {
          "internalType": "address",
          "name": "callerConfirmation",
          "type": "address"
        }
      ],
      "name": "renounceRole",
      "outputs": [],
      "stateMutability": "nonpayable",
      "type": "function"
    },
    {
      "inputs": [
        {
          "internalType": "bytes32",
          "name": "role",
          "type": "bytes32"
        },
        {
          "internalType": "address",
          "name": "account",
          "type": "address"
        }
      ],
      "name": "revokeRole",
      "outputs": [],
      "stateMutability": "nonpayable",
      "type": "function"
    },
    {
      "inputs": [
        {
          "internalType": "uint256",
          "name": "newFee",
          "type": "uint256"
        }
      ],
      "name": "setBridgeFee",
      "outputs": [],
      "stateMutability": "nonpayable",
      "type": "function"
    },
    {
      "inputs": [
        {
          "internalType": "uint256",
          "name": "_minAmount",
          "type": "uint256"
        },
        {
          "internalType": "uint256",
          "name": "_maxAmount",
          "type": "uint256"
        }
      ],
      "name": "setBridgeLimits",
      "outputs": [],
      "stateMutability": "nonpayable",
      "type": "function"
    },
    {
      "inputs": [
        {
          "internalType": "address",
          "name": "newRecipient",
          "type": "address"
        }
      ],
      "name": "setFeeRecipient",
      "outputs": [],
      "stateMutability": "nonpayable",
      "type": "function"
    },
    {
      "inputs": [
        {
          "internalType": "bytes4",
          "name": "interfaceId",
          "type": "bytes4"
        }
      ],
      "name": "supportsInterface",
      "outputs": [
        {
          "internalType": "bool",
          "name": "",
          "type": "bool"
        }
      ],
      "stateMutability": "view",
      "type": "function"
    },
    {
      "inputs": [],
      "name": "totalBridgedToEVM",
      "outputs": [
        {
          "internalType": "uint256",
          "name": "",
          "type": "uint256"
        }
      ],
      "stateMutability": "view",
      "type": "function"
    },
    {
      "inputs": [],
      "name": "totalBridgedToEdgeAI",
      "outputs": [
        {
          "internalType": "uint256",
          "name": "",
          "type": "uint256"
        }
      ],
      "stateMutability": "view",
      "type": "function"
    },
    {
      "inputs": [],
      "name": "totalFeesCollected",
      "outputs": [
        {
          "internalType": "uint256",
          "name": "",
          "type": "uint256"
        }
      ],
      "stateMutability": "view",
      "type": "function"
    },
    {
      "inputs": [],
      "name": "unpause",
      "outputs": [],
      "stateMutability": "nonpayable",
      "type": "function"
    },
    {
      "inputs": [
        {
          "internalType": "address",
          "name": "",
          "type": "address"
        },
        {
          "internalType": "uint256",
          "name": "",
          "type": "uint256"
        }
      ],
      "name": "userBridgeIndices",
      "outputs": [
        {
          "internalType": "uint256",
          "name": "",
          "type": "uint256"
        }
      ],
      "stateMutability": "view",
      "type": "function"
    },
    {
      "inputs": [],
      "name": "wEDGE",
      "outputs": [
        {
          "internalType": "contract WrappedEDGE",
          "name": "",
          "type": "address"
        }
      ],
      "stateMutability": "view",
      "type": "function"
    }
  ],
  "bytecode": "0x60a060405268056bc75e2d631000006003556a084595161401484a000000600455600a6005553480156200003257600080fd5b5060405162002126380380620021268339810160408190526200005591620002c8565b60016002556001600160a01b038316620000b65760405162461bcd60e51b815260206004820152601d60248201527f4272696467653a20696e76616c6964207745444745206164647265737300000060448201526064015b60405180910390fd5b6001600160a01b0382166200010e5760405162461bcd60e51b815260206004820152601d60248201527f4272696467653a20696e76616c69642061646d696e20616464726573730000006044820152606401620000ad565b6001600160a01b038116620001665760405162461bcd60e51b815260206004820152601d60248201527f4272696467653a20696e76616c69642066656520726563697069656e740000006044820152606401620000ad565b6001600160a01b03838116608052600680546001600160a01b03191691831691909117905562000198600083620001fc565b50620001c57fe2b7fb3b832174769106daebcfd6d1970523240dda11281102db9363b83b0dc483620001fc565b50620001f27f65d7a28e3265b37a6474929f336521b332c1681b933f6cb9f3376673440d862a83620001fc565b5050505062000312565b6000828152602081815260408083206001600160a01b038516845290915281205460ff16620002a1576000838152602081815260408083206001600160a01b03861684529091529020805460ff19166001179055620002583390565b6001600160a01b0316826001600160a01b0316847f2f8788117e7eff1d82e926ec794901d17c78024a50270940304540a733656f0d60405160405180910390a4506001620002a5565b5060005b92915050565b80516001600160a01b0381168114620002c357600080fd5b919050565b600080600060608486031215620002de57600080fd5b620002e984620002ab565b9250620002f960208501620002ab565b91506200030960408501620002ab565b90509250925092565b608051611dd5620003516000396000818161042a01528181610745015281816107d501528181610be701528181610cdc0152610db30152611dd56000f3fe608060405234801561001057600080fd5b50600436106101fb5760003560e01c80638456cb591161011a578063a217fddf116100ad578063c3c224751161007c578063c3c2247514610483578063d547741f1461048c578063dad39dcf1461049f578063e63ab1e9146104a8578063e74b981b146104cf57600080fd5b8063a217fddf1461044c578063a3e13d8114610454578063b48c4b4514610467578063bc063e1a1461047a57600080fd5b8063998cdf83116100e9578063998cdf83146103df57806399a5d747146103f25780639aa6188f146104055780639aac7a451461042557600080fd5b80638456cb59146103785780638e9c234a1461038057806391d14854146103a5578063926d7d7f146103b857600080fd5b806336568abe1161019257806360132c9c1161016157806360132c9c1461033d57806360c6d8ae1461034657806382b12dd71461034f57806382c4f73e1461035857600080fd5b806336568abe146102ec5780633f4ba83a146102ff57806346904840146103075780635c975abb1461033257600080fd5b8063248a9ca3116101ce578063248a9ca31461028e5780632b8681a7146102b15780632f2ff15d146102c6578063305c4142146102d957600080fd5b806301ffc9a71461020057806307d9c534146102285780632165cbb71461024b57806321e495a414610277575b600080fd5b61021361020e3660046117eb565b6104e2565b60405190151581526020015b60405180910390f35b61021361023636600461181c565b60076020526000908152604090205460ff1681565b600a54600b54600c5460085460408051948552602085019390935291830152606082015260800161021f565b610280600a5481565b60405190815260200161021f565b61028061029c36600461181c565b60009081526020819052604090206001015490565b6102c46102bf36600461189a565b610519565b005b6102c46102d43660046118f4565b610a59565b6102c46102e7366004611920565b610a84565b6102c46102fa3660046118f4565b610f93565b6102c4610fc6565b60065461031a906001600160a01b031681565b6040516001600160a01b03909116815260200161021f565b60015460ff16610213565b61028060045481565b610280600c5481565b61028060055481565b61036b61036636600461181c565b610ffb565b60405161021f91906119b2565b6102c46111aa565b61039361038e36600461181c565b6111dc565b60405161021f96959493929190611a16565b6102136103b33660046118f4565b6112bc565b6102807fe2b7fb3b832174769106daebcfd6d1970523240dda11281102db9363b83b0dc481565b6102c46103ed36600461181c565b6112e5565b61028061040036600461181c565b611380565b610418610413366004611a5e565b61139d565b60405161021f9190611a79565b61031a7f000000000000000000000000000000000000000000000000000000000000000081565b610280600081565b6102c4610462366004611abd565b611409565b610280610475366004611adf565b61149c565b6102806101f481565b61028060035481565b6102c461049a3660046118f4565b6114cd565b610280600b5481565b6102807f65d7a28e3265b37a6474929f336521b332c1681b933f6cb9f3376673440d862a81565b6102c46104dd366004611a5e565b6114f2565b60006001600160e01b03198216637965db0b60e01b148061051357506301ffc9a760e01b6001600160e01b03198316145b92915050565b7fe2b7fb3b832174769106daebcfd6d1970523240dda11281102db9363b83b0dc4610543816115a9565b61054b6115b3565b6105536115d9565b6001600160a01b0385166105aa5760405162461bcd60e51b8152602060048201526019602482015278109c9a5919d94e881a5b9d985b1a59081c9958da5c1a595b9d603a1b60448201526064015b60405180910390fd5b6003548410156105fc5760405162461bcd60e51b815260206004820152601c60248201527f4272696467653a20616d6f756e742062656c6f77206d696e696d756d0000000060448201526064016105a1565b60045484111561064e5760405162461bcd60e51b815260206004820152601e60248201527f4272696467653a20616d6f756e742065786365656473206d6178696d756d000060448201526064016105a1565b60008383604051602001610663929190611b09565b60408051601f1981840301815291815281516020928301206000818152600790935291205490915060ff16156106e95760405162461bcd60e51b815260206004820152602560248201527f4272696467653a207472616e73616374696f6e20616c72656164792070726f63604482015264195cdcd95960da1b60648201526084016105a1565b6000818152600760205260408120805460ff19166001179055600554612710906107139088611b2f565b61071d9190611b46565b9050600061072b8288611b68565b6040516367b6573560e01b81529091506001600160a01b037f000000000000000000000000000000000000000000000000000000000000000016906367b6573590610780908b9085908b908b90600401611ba4565b600060405180830381600087803b15801561079a57600080fd5b505af11580156107ae573d6000803e3d6000fd5b50505050600082111561085e576006546040516367b6573560e01b81526001600160a01b037f00000000000000000000000000000000000000000000000000000000000000008116926367b657359261081492919091169086908b908b90600401611ba4565b600060405180830381600087803b15801561082e57600080fd5b505af1158015610842573d6000803e3d6000fd5b5050505081600c60008282546108589190611bd6565b90915550505b600880546040805160c0810182526001600160a01b038c81168252602080830187815283850189815242606086019081528651938401909652600080845260808601938452600160a08701819052880189559790975283517ff3f7a9fe364faab93b216da50a3214154f22a0a2b415b23a84c8169e8b636ee36006880290810180546001600160a01b0319169290951691909117845590517ff3f7a9fe364faab93b216da50a3214154f22a0a2b415b23a84c8169e8b636ee482015595517ff3f7a9fe364faab93b216da50a3214154f22a0a2b415b23a84c8169e8b636ee587015592517ff3f7a9fe364faab93b216da50a3214154f22a0a2b415b23a84c8169e8b636ee68601559151929390927ff3f7a9fe364faab93b216da50a3214154f22a0a2b415b23a84c8169e8b636ee79091019061099b9082611c87565b5060a091909101516005909101805460ff19169115159190911790556001600160a01b03891660009081526009602090815260408220805460018101825590835290822001829055600a80548a92906109f5908490611bd6565b9250508190555080896001600160a01b03167fb6b19d7926ae19a267f0c2bcb927b4976bbaef50b561b09cdc314b95377fbe4984868b8b604051610a3c9493929190611d47565b60405180910390a350505050610a526001600255565b5050505050565b600082815260208190526040902060010154610a74816115a9565b610a7e8383611601565b50505050565b610a8c6115b3565b610a946115d9565b600354831015610ae65760405162461bcd60e51b815260206004820152601c60248201527f4272696467653a20616d6f756e742062656c6f77206d696e696d756d0000000060448201526064016105a1565b600454831115610b385760405162461bcd60e51b815260206004820152601e60248201527f4272696467653a20616d6f756e742065786365656473206d6178696d756d000060448201526064016105a1565b80610b855760405162461bcd60e51b815260206004820152601e60248201527f4272696467653a20696e76616c6964204564676541492061646472657373000060448201526064016105a1565b600061271060055485610b989190611b2f565b610ba29190611b46565b90506000610bb08286611b68565b90508115610cba576006546040516323b872dd60e01b81523360048201526001600160a01b039182166024820152604481018490527f0000000000000000000000000000000000000000000000000000000000000000909116906323b872dd906064016020604051808303816000875af1158015610c32573d6000803e3d6000fd5b505050506040513d601f19601f82011682018060405250810190610c569190611d67565b610ca25760405162461bcd60e51b815260206004820152601b60248201527f4272696467653a20666565207472616e73666572206661696c6564000000000060448201526064016105a1565b81600c6000828254610cb49190611bd6565b90915550505b6040516323b872dd60e01b8152336004820152306024820152604481018290527f00000000000000000000000000000000000000000000000000000000000000006001600160a01b0316906323b872dd906064016020604051808303816000875af1158015610d2d573d6000803e3d6000fd5b505050506040513d601f19601f82011682018060405250810190610d519190611d67565b610d9d5760405162461bcd60e51b815260206004820152601760248201527f4272696467653a207472616e73666572206661696c656400000000000000000060448201526064016105a1565b604051630852cd8d60e31b8152600481018290527f00000000000000000000000000000000000000000000000000000000000000006001600160a01b0316906342966c6890602401600060405180830381600087803b158015610dff57600080fd5b505af1158015610e13573d6000803e3d6000fd5b5050600880546040805160c08101825233815260208082018890528183018990524260608301528251601f8b01829004820281018201909352898352929550929350608083019189908990819084018382808284376000920182905250938552505050602091820181905283546001808201865594825290829020835160069092020180546001600160a01b0319166001600160a01b039092169190911781559082015192810192909255604081015160028301556060810151600383015560808101519091906004820190610ee99082611c87565b5060a091909101516005909101805460ff19169115159190911790553360009081526009602090815260408220805460018101825590835290822001829055600b8054889290610f3a908490611bd6565b9091555050604051819033907fcdff45dd53d5072a7d26d9328c4d1ffdedfb18f56921d7cb984f552d7f412c2290610f7990869088908b908b90611d47565b60405180910390a3505050610f8e6001600255565b505050565b6001600160a01b0381163314610fbc5760405163334bd91960e11b815260040160405180910390fd5b610f8e8282611693565b7f65d7a28e3265b37a6474929f336521b332c1681b933f6cb9f3376673440d862a610ff0816115a9565b610ff86116fe565b50565b61103f6040518060c0016040528060006001600160a01b03168152602001600081526020016000815260200160008152602001606081526020016000151581525090565b60085482106110885760405162461bcd60e51b8152602060048201526015602482015274084e4d2c8ceca7440d2dcecc2d8d2c840d2dcc8caf605b1b60448201526064016105a1565b6008828154811061109b5761109b611d89565b90600052602060002090600602016040518060c00160405290816000820160009054906101000a90046001600160a01b03166001600160a01b03166001600160a01b0316815260200160018201548152602001600282015481526020016003820154815260200160048201805461111190611bff565b80601f016020809104026020016040519081016040528092919081815260200182805461113d90611bff565b801561118a5780601f1061115f5761010080835404028352916020019161118a565b820191906000526020600020905b81548152906001019060200180831161116d57829003601f168201915b50505091835250506005919091015460ff16151560209091015292915050565b7f65d7a28e3265b37a6474929f336521b332c1681b933f6cb9f3376673440d862a6111d4816115a9565b610ff8611750565b600881815481106111ec57600080fd5b6000918252602090912060069091020180546001820154600283015460038401546004850180546001600160a01b0390951696509294919390929061123090611bff565b80601f016020809104026020016040519081016040528092919081815260200182805461125c90611bff565b80156112a95780601f1061127e576101008083540402835291602001916112a9565b820191906000526020600020905b81548152906001019060200180831161128c57829003601f168201915b5050506005909301549192505060ff1686565b6000918252602082815260408084206001600160a01b0393909316845291905290205460ff1690565b60006112f0816115a9565b6101f48211156113395760405162461bcd60e51b8152602060048201526014602482015273084e4d2c8ceca7440cccaca40e8dede40d0d2ced60631b60448201526064016105a1565b600580549083905560408051828152602081018590527f3e7af433b010df0902f945628a14ef63c63e1e5e8306127bde522445a470588f91015b60405180910390a1505050565b6000612710600554836113939190611b2f565b6105139190611b46565b6001600160a01b0381166000908152600960209081526040918290208054835181840281018401909452808452606093928301828280156113fd57602002820191906000526020600020905b8154815260200190600101908083116113e9575b50505050509050919050565b6000611414816115a9565b81831061145c5760405162461bcd60e51b81526020600482015260166024820152754272696467653a20696e76616c6964206c696d69747360501b60448201526064016105a1565b6003839055600482905560408051848152602081018490527fcfc62648bfe6689bfdf06f50d3233f77d9e91b33d62e0b52350865779cd831519101611373565b600960205281600052604060002081815481106114b857600080fd5b90600052602060002001600091509150505481565b6000828152602081905260409020600101546114e8816115a9565b610a7e8383611693565b60006114fd816115a9565b6001600160a01b03821661154f5760405162461bcd60e51b8152602060048201526019602482015278109c9a5919d94e881a5b9d985b1a59081c9958da5c1a595b9d603a1b60448201526064016105a1565b600680546001600160a01b038481166001600160a01b031983168117909355604080519190921680825260208201939093527faaebcf1bfa00580e41d966056b48521fa9f202645c86d4ddf28113e617c1b1d39101611373565b610ff8813361178b565b60015460ff16156115d75760405163d93c066560e01b815260040160405180910390fd5b565b60028054036115fb57604051633ee5aeb560e01b815260040160405180910390fd5b60028055565b600061160d83836112bc565b61168b576000838152602081815260408083206001600160a01b03861684529091529020805460ff191660011790556116433390565b6001600160a01b0316826001600160a01b0316847f2f8788117e7eff1d82e926ec794901d17c78024a50270940304540a733656f0d60405160405180910390a4506001610513565b506000610513565b600061169f83836112bc565b1561168b576000838152602081815260408083206001600160a01b0386168085529252808320805460ff1916905551339286917ff6391f5c32d9c69d2a47ea670b442974b53935d1edc7fd64eb21e047a839171b9190a4506001610513565b6117066117c8565b6001805460ff191690557f5db9ee0a495bf2e6ff9c91a7834c1ba4fdd244a5e8aa4e537bd38aeae4b073aa335b6040516001600160a01b03909116815260200160405180910390a1565b6117586115b3565b6001805460ff1916811790557f62e78cea01bee320cd4e420270b5ea74000d11b0c9f74754ebdbfc544b05a25833611733565b61179582826112bc565b6117c45760405163e2517d3f60e01b81526001600160a01b0382166004820152602481018390526044016105a1565b5050565b60015460ff166115d757604051638dfc202b60e01b815260040160405180910390fd5b6000602082840312156117fd57600080fd5b81356001600160e01b03198116811461181557600080fd5b9392505050565b60006020828403121561182e57600080fd5b5035919050565b80356001600160a01b038116811461184c57600080fd5b919050565b60008083601f84011261186357600080fd5b50813567ffffffffffffffff81111561187b57600080fd5b60208301915083602082850101111561189357600080fd5b9250929050565b600080600080606085870312156118b057600080fd5b6118b985611835565b935060208501359250604085013567ffffffffffffffff8111156118dc57600080fd5b6118e887828801611851565b95989497509550505050565b6000806040838503121561190757600080fd5b8235915061191760208401611835565b90509250929050565b60008060006040848603121561193557600080fd5b83359250602084013567ffffffffffffffff81111561195357600080fd5b61195f86828701611851565b9497909650939450505050565b6000815180845260005b8181101561199257602081850181015186830182015201611976565b506000602082860101526020601f19601f83011685010191505092915050565b6020815260018060a01b0382511660208201526020820151604082015260408201516060820152606082015160808201526000608083015160c060a08401526119fe60e084018261196c565b905060a0840151151560c08401528091505092915050565b60018060a01b038716815285602082015284604082015283606082015260c060808201526000611a4960c083018561196c565b905082151560a0830152979650505050505050565b600060208284031215611a7057600080fd5b61181582611835565b6020808252825182820181905260009190848201906040850190845b81811015611ab157835183529284019291840191600101611a95565b50909695505050505050565b60008060408385031215611ad057600080fd5b50508035926020909101359150565b60008060408385031215611af257600080fd5b611afb83611835565b946020939093013593505050565b8183823760009101908152919050565b634e487b7160e01b600052601160045260246000fd5b808202811582820484141761051357610513611b19565b600082611b6357634e487b7160e01b600052601260045260246000fd5b500490565b8181038181111561051357610513611b19565b81835281816020850137506000828201602090810191909152601f909101601f19169091010190565b60018060a01b0385168152836020820152606060408201526000611bcc606083018486611b7b565b9695505050505050565b8082018082111561051357610513611b19565b634e487b7160e01b600052604160045260246000fd5b600181811c90821680611c1357607f821691505b602082108103611c3357634e487b7160e01b600052602260045260246000fd5b50919050565b601f821115610f8e57600081815260208120601f850160051c81016020861015611c605750805b601f850160051c820191505b81811015611c7f57828155600101611c6c565b505050505050565b815167ffffffffffffffff811115611ca157611ca1611be9565b611cb581611caf8454611bff565b84611c39565b602080601f831160018114611cea5760008415611cd25750858301515b600019600386901b1c1916600185901b178555611c7f565b600085815260208120601f198616915b82811015611d1957888601518255948401946001909101908401611cfa565b5085821015611d375787850151600019600388901b60f8161c191681555b5050505050600190811b01905550565b848152836020820152606060408201526000611bcc606083018486611b7b565b600060208284031215611d7957600080fd5b8151801515811461181557600080fd5b634e487b7160e01b600052603260045260246000fdfea2646970667358221220fc864256b2d18bb1236e4e6af19971e2514571851aab5a76e9cb8600d19acaae64736f6c63430008140033",
  "linkReferences": {},
  "deployedLinkReferences": {}
}