{"contracts/EdgeAIBridge.sol":{"EdgeAIBridge":{"abi":[{"inputs":[{"internalType":"address","name":"_wEDGE","type":"address"},{"internalType":"address","name":"_admin","type":"address"},{"internalType":"address","name":"_feeRecipient","type":"address"}],"stateMutability":"nonpayable","type":"constructor"},{"inputs":[],"name":"AccessControlBadConfirmation","type":"error"},{"inputs":[{"internalType":"address","name":"account","type":"address"},{"internalType":"bytes32","name":"neededRole","type":"bytes32"}],"name":"AccessControlUnauthorizedAccount","type":"error"},{"inputs":[],"name":"EnforcedPause","type":"error"},{"inputs":[],"name":"ExpectedPause","type":"error"},{"inputs":[],"name":"ReentrancyGuardReentrantCall","type":"error"},{"anonymous":false,"inputs":[{"indexed":false,"internalType":"uint256","name":"oldFee","type":"uint256"},{"indexed":false,"internalType":"uint256","name":"newFee","type":"uint256"}],"name":"BridgeFeeUpdated","type":"event"},{"anonymous":false,"inputs":[{"indexed":false,"internalType":"uint256","name":"minAmount","type":"uint256"},{"indexed":false,"internalType":"uint256","name":"maxAmount","type":"uint256"}],"name":"BridgeLimitsUpdated","type":"event"},{"anonymous":false,"inputs":[{"indexed":true,"internalType":"address","name":"recipient","type":"address"},{"indexed":false,"internalType":"uint256","name":"amount","type":"uint256"},{"indexed":false,"internalType":"uint256","name":"fee","type":"uint256"},{"indexed":false,"internalType":"string","name":"edgeaiTxHash","type":"string"},{"indexed":true,"internalType":"uint256","name":"recordIndex","type":"uint256"}],"name":"BridgeToEVM","type":"event"},{"anonymous":false,"inputs":[{"indexed":true,"internalType":"address","name":"sender","type":"address"},{"indexed":false,"internalType":"uint256","name":"amount","type":"uint256"},{"indexed":false,"internalType":"uint256","name":"fee","type":"uint256"},{"indexed":false,"internalType":"string","name":"edgeaiAddress","type":"string"},{"indexed":true,"internalType":"uint256","name":"recordIndex","type":"uint256"}],"name":"BridgeToEdgeAI","type":"event"},{"anonymous":false,"inputs":[{"indexed":false,"internalType":"address","name":"oldRecipient","type":"address"},{"indexed":false,"internalType":"address","name":"newRecipient","type":"address"}],"name":"FeeRecipientUpdated","type":"event"},{"anonymous":false,"inputs":[{"indexed":false,"internalType":"address","name":"account","type":"address"}],"name":"Paused","type":"event"},{"anonymous":false,"inputs":[{"indexed":true,"internalType":"bytes32","name":"role","type":"bytes32"},{"indexed":true,"internalType":"bytes32","name":"previousAdminRole","type":"bytes32"},{"indexed":true,"internalType":"bytes32","name":"newAdminRole","type":"bytes32"}],"name":"RoleAdminChanged","type":"event"},{"anonymous":false,"inputs":[{"indexed":true,"internalType":"bytes32","name":"role","type":"bytes32"},{"indexed":true,"internalType":"address","name":"account","type":"address"},{"indexed":true,"internalType":"address","name":"sender","type":"address"}],"name":"RoleGranted","type":"event"},{"anonymous":false,"inputs":[{"indexed":true,"internalType":"bytes32","name":"role","type":"bytes32"},{"indexed":true,"internalType":"address","name":"account","type":"address"},{"indexed":true,"internalType":"address","name":"sender","type":"address"}],"name":"RoleRevoked","type":"event"},{"anonymous":false,"inputs":[{"indexed":false,"internalType":"address","name":"account","type":"address"}],"name":"Unpaused","type":"event"},{"inputs":[],"name":"DEFAULT_ADMIN_ROLE","outputs":[{"internalType":"bytes32","name":"","type":"bytes32"}],"stateMutability":"view","type":"function"},{"inputs":[],"name":"MAX_FEE","outputs":[{"internalType":"uint256","name":"","type":"uint256"}],"stateMutability":"view","type":"function"},{"inputs":[],"name":"PAUSER_ROLE","outputs":[{"internalType":"bytes32","name":"","type":"bytes32"}],"stateMutability":"view","type":"function"},{"inputs":[],"name":"RELAYER_ROLE","outputs":[{"internalType":"bytes32","name":"","type":"bytes32"}],"stateMutability":"view","type":"function"},{"inputs":[],"name":"bridgeFee","outputs":[{"internalType":"uint256","name":"","type":"uint256"}],"stateMutability":"view","type":"function"},{"inputs":[{"internalType":"uint256","name":"","type":"uint256"}],"name":"bridgeHistory","outputs":[{"internalType":"address","name":"user","type":"address"},{"internalType":"uint256","name":"amount","type":"uint256"},{"internalType":"uint256","name":"fee","type":"uint256"},{"internalType":"uint256","name":"timestamp","type":"uint256"},{"internalType":"string","name":"targetAddress","type":"string"},{"internalType":"bool","name":"isIncoming","type":"bool"}],"stateMutability":"view","type":"function"},{"inputs":[{"internalType":"uint256","name":"amount","type":"uint256"},{"internalType":"string","name":"edgeaiAddress","type":"string"}],"name":"bridgeToEdgeAI","outputs":[],"stateMutability":"nonpayable","type":"function"},{"inputs":[{"internalType":"uint256","name":"amount","type":"uint256"}],"name":"calculateFee","outputs":[{"internalType":"uint256","name":"","type":"uint256"}],"stateMutability":"view","type":"function"},{"inputs":[],"name":"feeRecipient","outputs":[{"internalType":"address","name":"","type":"address"}],"stateMutability":"view","type":"function"},{"inputs":[{"internalType":"uint256","name":"index","type":"uint256"}],"name":"getBridgeRecord","outputs":[{"components":[{"internalType":"address","name":"user","type":"address"},{"internalType":"uint256","name":"amount","type":"uint256"},{"internalType":"uint256","name":"fee","type":"uint256"},{"internalType":"uint256","name":"timestamp","type":"uint256"},{"internalType":"string","name":"targetAddress","type":"string"},{"internalType":"bool","name":"isIncoming","type":"bool"}],"internalType":"struct EdgeAIBridge.BridgeRecord","name":"","type":"tuple"}],"stateMutability":"view","type":"function"},{"inputs":[],"name":"getBridgeStats","outputs":[{"internalType":"uint256","name":"_totalBridgedToEVM","type":"uint256"},{"internalType":"uint256","name":"_totalBridgedToEdgeAI","type":"uint256"},{"internalType":"uint256","name":"_totalFeesCollected","type":"uint256"},{"internalType":"uint256","name":"_totalRecords","type":"uint256"}],"stateMutability":"view","type":"function"},{"inputs":[{"internalType":"bytes32","name":"role","type":"bytes32"}],"name":"getRoleAdmin","outputs":[{"internalType":"bytes32","name":"","type":"bytes32"}],"stateMutability":"view","type":"function"},{"inputs":[{"internalType":"address","name":"user","type":"address"}],"name":"getUserBridgeHistory","outputs":[{"internalType":"uint256[]","name":"","type":"uint256[]"}],"stateMutability":"view","type":"function"},{"inputs":[{"internalType":"bytes32","name":"role","type":"bytes32"},{"internalType":"address","name":"account","type":"address"}],"name":"grantRole","outputs":[],"stateMutability":"nonpayable","type":"function"},{"inputs":[{"internalType":"bytes32","name":"role","type":"bytes32"},{"internalType":"address","name":"account","type":"address"}],"name":"hasRole","outputs":[{"internalType":"bool","name":"","type":"bool"}],"stateMutability":"view","type":"function"},{"inputs":[],"name":"maxBridgeAmount","outputs":[{"internalType":"uint256","name":"","type":"uint256"}],"stateMutability":"view","type":"function"},{"inputs":[],"name":"minBridgeAmount","outputs":[{"internalType":"uint256","name":"","type":"uint256"}],"stateMutability":"view","type":"function"},{"inputs":[],"name":"pause","outputs":[],"stateMutability":"nonpayable","type":"function"},{"inputs":[],"name":"paused","outputs":[{"internalType":"bool","name":"","type":"bool"}],"stateMutability":"view","type":"function"},{"inputs":[{"internalType":"address","name":"recipient","type":"address"},{"internalType":"uint256","name":"amount","type":"uint256"},{"internalType":"string","name":"edgeaiTxHash","type":"string"}],"name":"processBridgeToEVM","outputs":[],"stateMutability":"nonpayable","type":"function"},{"inputs":[{"internalType":"bytes32","name":"","type":"bytes32"}],"name":"processedHashes","outputs":[{"internalType":"bool","name":"","type":"bool"}],"stateMutability":"view","type":"function"},{"inputs":[{"internalType":"bytes32","name":"role","type":"bytes32"},{"internalType":"address","name":"callerConfirmation","type":"address"}],"name":"renounceRole","outputs":[],"stateMutability":"nonpayable","type":"function"},{"inputs":[{"internalType":"bytes32","name":"role","type":"bytes32"},{"internalType":"address","name":"account","type":"address"}],"name":"revokeRole","outputs":[],"stateMutability":"nonpayable","type":"function"},{"inputs":[{"internalType":"uint256","name":"newFee","type":"uint256"}],"name":"setBridgeFee","outputs":[],"stateMutability":"nonpayable","type":"function"},{"inputs":[{"internalType":"uint256","name":"_minAmount","type":"uint256"},{"internalType":"uint256","name":"_maxAmount","type":"uint256"}],"name":"setBridgeLimits","outputs":[],"stateMutability":"nonpayable","type":"function"},{"inputs":[{"internalType":"address","name":"newRecipient","type":"address"}],"name":"setFeeRecipient","outputs":[],"stateMutability":"nonpayable","type":"function"},{"inputs":[{"internalType":"bytes4","name":"interfaceId","type":"bytes4"}],"name":"supportsInterface","outputs":[{"internalType":"bool","name":"","type":"bool"}],"stateMutability":"view","type":"function"},{"inputs":[],"name":"totalBridgedToEVM","outputs":[{"internalType":"uint256","name":"","type":"uint256"}],"stateMutability":"view","type":"function"},{"inputs":[],"name":"totalBridgedToEdgeAI","outputs":[{"internalType":"uint256","name":"","type":"uint256"}],"stateMutability":"view","type":"function"},{"inputs":[],"name":"totalFeesCollected","outputs":[{"internalType":"uint256","name":"","type":"uint256"}],"stateMutability":"view","type":"function"},{"inputs":[],"name":"unpause","outputs":[],"stateMutability":"nonpayable","type":"function"},{"inputs":[{"internalType":"address","name":"","type":"address"},{"internalType":"uint256","name":"","type":"uint256"}],"name":"userBridgeIndices","outputs":[{"internalType":"uint256","name":"","type":"uint256"}],"stateMutability":"view","type":"function"},{"inputs":[],"name":"wEDGE","outputs":[{"internalType":"contract WrappedEDGE","name":"","type":"address"}],"stateMutability":"view","type":"function"}],"evm":{"bytecode":{"linkReferences":{},"object":"60a060405268056bc75e2d631000006003556a084595161401484a000000600455600a6005553480156200003257600080fd5b5060405162002126380380620021268339810160408190526200005591620002c8565b60016002556001600160a01b038316620000b65760405162461bcd60e51b815260206004820152601d60248201527f4272696467653a20696e76616c6964207745444745206164647265737300000060448201526064015b60405180910390fd5b6001600160a01b0382166200010e5760405162461bcd60e51b815260206004820152601d60248201527f4272696467653a20696e76616c69642061646d696e20616464726573730000006044820152606401620000ad565b6001600160a01b038116620001665760405162461bcd60e51b815260206004820152601d60248201527f4272696467653a20696e76616c69642066656520726563697069656e740000006044820152606401620000ad565b6001600160a01b03838116608052600680546001600160a01b03191691831691909117905562000198600083620001fc565b50620001c57fe2b7fb3b832174769106daebcfd6d1970523240dda11281102db9363b83b0dc483620001fc565b50620001f27f65d7a28e3265b37a6474929f336521b332c1681b933f6cb9f3376673440d862a83620001fc565b5050505062000312565b6000828152602081815260408083206001600160a01b038516845290915281205460ff16620002a1576000838152602081815260408083206001600160a01b03861684529091529020805460ff19166001179055620002583390565b6001600160a01b0316826001600160a01b0316847f2f8788117e7eff1d82e926ec794901d17c78024a50270940304540a733656f0d60405160405180910390a4506001620002a5565b5060005b92915050565b80516001600160a01b0381168114620002c357600080fd5b919050565b600080600060608486031215620002de57600080fd5b620002e984620002ab565b9250620002f960208501620002ab565b91506200030960408501620002ab565b90509250925092565b608051611dd5620003516000396000818161042a01528181610745015281816107d501528181610be701528181610cdc0152610db30152611dd56000f3fe608060405234801561001057600080fd5b50600436106101fb5760003560e01c80638456cb591161011a578063a217fddf116100ad578063c3c224751161007c578063c3c2247514610483578063d547741f1461048c578063dad39dcf1461049f578063e63ab1e9146104a8578063e74b981b146104cf57600080fd5b8063a217fddf1461044c578063a3e13d8114610454578063b48c4b4514610467578063bc063e1a1461047a57600080fd5b8063998cdf83116100e9578063998cdf83146103df57806399a5d747146103f25780639aa6188f146104055780639aac7a451461042557600080fd5b80638456cb59146103785780638e9c234a1461038057806391d14854146103a5578063926d7d7f146103b857600080fd5b806336568abe1161019257806360132c9c1161016157806360132c9c1461033d57806360c6d8ae1461034657806382b12dd71461034f57806382c4f73e1461035857600080fd5b806336568abe146102ec5780633f4ba83a146102ff57806346904840146103075780635c975abb1461033257600080fd5b8063248a9ca3116101ce578063248a9ca31461028e5780632b8681a7146102b15780632f2ff15d146102c6578063305c4142146102d957600080fd5b806301ffc9a71461020057806307d9c534146102285780632165cbb71461024b57806321e495a414610277575b600080fd5b61021361020e3660046117eb565b6104e2565b60405190151581526020015b60405180910390f35b61021361023636600461181c565b60076020526000908152604090205460ff1681565b600a54600b54600c5460085460408051948552602085019390935291830152606082015260800161021f565b610280600a5481565b60405190815260200161021f565b61028061029c36600461181c565b60009081526020819052604090206001015490565b6102c46102bf36600461189a565b610519565b005b6102c46102d43660046118f4565b610a59565b6102c46102e7366004611920565b610a84565b6102c46102fa3660046118f4565b610f93565b6102c4610fc6565b60065461031a906001600160a01b031681565b6040516001600160a01b03909116815260200161021f565b60015460ff16610213565b61028060045481565b610280600c5481565b61028060055481565b61036b61036636600461181c565b610ffb565b60405161021f91906119b2565b6102c46111aa565b61039361038e36600461181c565b6111dc565b60405161021f96959493929190611a16565b6102136103b33660046118f4565b6112bc565b6102807fe2b7fb3b832174769106daebcfd6d1970523240dda11281102db9363b83b0dc481565b6102c46103ed36600461181c565b6112e5565b61028061040036600461181c565b611380565b610418610413366004611a5e565b61139d565b60405161021f9190611a79565b61031a7f000000000000000000000000000000000000000000000000000000000000000081565b610280600081565b6102c4610462366004611abd565b611409565b610280610475366004611adf565b61149c565b6102806101f481565b61028060035481565b6102c461049a3660046118f4565b6114cd565b610280600b5481565b6102807f65d7a28e3265b37a6474929f336521b332c1681b933f6cb9f3376673440d862a81565b6102c46104dd366004611a5e565b6114f2565b60006001600160e01b03198216637965db0b60e01b148061051357506301ffc9a760e01b6001600160e01b03198316145b92915050565b7fe2b7fb3b832174769106daebcfd6d1970523240dda11281102db9363b83b0dc4610543816115a9565b61054b6115b3565b6105536115d9565b6001600160a01b0385166105aa5760405162461bcd60e51b8152602060048201526019602482015278109c9a5919d94e881a5b9d985b1a59081c9958da5c1a595b9d603a1b60448201526064015b60405180910390fd5b6003548410156105fc5760405162461bcd60e51b815260206004820152601c60248201527f4272696467653a20616d6f756e742062656c6f77206d696e696d756d0000000060448201526064016105a1565b60045484111561064e5760405162461bcd60e51b815260206004820152601e60248201527f4272696467653a20616d6f756e742065786365656473206d6178696d756d000060448201526064016105a1565b60008383604051602001610663929190611b09565b60408051601f1981840301815291815281516020928301206000818152600790935291205490915060ff16156106e95760405162461bcd60e51b815260206004820152602560248201527f4272696467653a207472616e73616374696f6e20616c72656164792070726f63604482015264195cdcd95960da1b60648201526084016105a1565b6000818152600760205260408120805460ff19166001179055600554612710906107139088611b2f565b61071d9190611b46565b9050600061072b8288611b68565b6040516367b6573560e01b81529091506001600160a01b037f000000000000000000000000000000000000000000000000000000000000000016906367b6573590610780908b9085908b908b90600401611ba4565b600060405180830381600087803b15801561079a57600080fd5b505af11580156107ae573d6000803e3d6000fd5b50505050600082111561085e576006546040516367b6573560e01b81526001600160a01b037f00000000000000000000000000000000000000000000000000000000000000008116926367b657359261081492919091169086908b908b90600401611ba4565b600060405180830381600087803b15801561082e57600080fd5b505af1158015610842573d6000803e3d6000fd5b5050505081600c60008282546108589190611bd6565b90915550505b600880546040805160c0810182526001600160a01b038c81168252602080830187815283850189815242606086019081528651938401909652600080845260808601938452600160a08701819052880189559790975283517ff3f7a9fe364faab93b216da50a3214154f22a0a2b415b23a84c8169e8b636ee36006880290810180546001600160a01b0319169290951691909117845590517ff3f7a9fe364faab93b216da50a3214154f22a0a2b415b23a84c8169e8b636ee482015595517ff3f7a9fe364faab93b216da50a3214154f22a0a2b415b23a84c8169e8b636ee587015592517ff3f7a9fe364faab93b216da50a3214154f22a0a2b415b23a84c8169e8b636ee68601559151929390927ff3f7a9fe364faab93b216da50a3214154f22a0a2b415b23a84c8169e8b636ee79091019061099b9082611c87565b5060a091909101516005909101805460ff19169115159190911790556001600160a01b03891660009081526009602090815260408220805460018101825590835290822001829055600a80548a92906109f5908490611bd6565b9250508190555080896001600160a01b03167fb6b19d7926ae19a267f0c2bcb927b4976bbaef50b561b09cdc314b95377fbe4984868b8b604051610a3c9493929190611d47565b60405180910390a350505050610a526001600255565b5050505050565b600082815260208190526040902060010154610a74816115a9565b610a7e8383611601565b50505050565b610a8c6115b3565b610a946115d9565b600354831015610ae65760405162461bcd60e51b815260206004820152601c60248201527f4272696467653a20616d6f756e742062656c6f77206d696e696d756d0000000060448201526064016105a1565b600454831115610b385760405162461bcd60e51b815260206004820152601e60248201527f4272696467653a20616d6f756e742065786365656473206d6178696d756d000060448201526064016105a1565b80610b855760405162461bcd60e51b815260206004820152601e60248201527f4272696467653a20696e76616c6964204564676541492061646472657373000060448201526064016105a1565b600061271060055485610b989190611b2f565b610ba29190611b46565b90506000610bb08286611b68565b90508115610cba576006546040516323b872dd60e01b81523360048201526001600160a01b039182166024820152604481018490527f0000000000000000000000000000000000000000000000000000000000000000909116906323b872dd906064016020604051808303816000875af1158015610c32573d6000803e3d6000fd5b505050506040513d601f19601f82011682018060405250810190610c569190611d67565b610ca25760405162461bcd60e51b815260206004820152601b60248201527f4272696467653a20666565207472616e73666572206661696c6564000000000060448201526064016105a1565b81600c6000828254610cb49190611bd6565b90915550505b6040516323b872dd60e01b8152336004820152306024820152604481018290527f00000000000000000000000000000000000000000000000000000000000000006001600160a01b0316906323b872dd906064016020604051808303816000875af1158015610d2d573d6000803e3d6000fd5b505050506040513d601f19601f82011682018060405250810190610d519190611d67565b610d9d5760405162461bcd60e51b815260206004820152601760248201527f4272696467653a207472616e73666572206661696c656400000000000000000060448201526064016105a1565b604051630852cd8d60e31b8152600481018290527f00000000000000000000000000000000000000000000000000000000000000006001600160a01b0316906342966c6890602401600060405180830381600087803b158015610dff57600080fd5b505af1158015610e13573d6000803e3d6000fd5b5050600880546040805160c08101825233815260208082018890528183018990524260608301528251601f8b01829004820281018201909352898352929550929350608083019189908990819084018382808284376000920182905250938552505050602091820181905283546001808201865594825290829020835160069092020180546001600160a01b0319166001600160a01b039092169190911781559082015192810192909255604081015160028301556060810151600383015560808101519091906004820190610ee99082611c87565b5060a091909101516005909101805460ff19169115159190911790553360009081526009602090815260408220805460018101825590835290822001829055600b8054889290610f3a908490611bd6565b9091555050604051819033907fcdff45dd53d5072a7d26d9328c4d1ffdedfb18f56921d7cb984f552d7f412c2290610f7990869088908b908b90611d47565b60405180910390a3505050610f8e6001600255565b505050565b6001600160a01b0381163314610fbc5760405163334bd91960e11b815260040160405180910390fd5b610f8e8282611693565b7f65d7a28e3265b37a6474929f336521b332c1681b933f6cb9f3376673440d862a610ff0816115a9565b610ff86116fe565b50565b61103f6040518060c0016040528060006001600160a01b03168152602001600081526020016000815260200160008152602001606081526020016000151581525090565b60085482106110885760405162461bcd60e51b8152602060048201526015602482015274084e4d2c8ceca7440d2dcecc2d8d2c840d2dcc8caf605b1b60448201526064016105a1565b6008828154811061109b5761109b611d89565b90600052602060002090600602016040518060c00160405290816000820160009054906101000a90046001600160a01b03166001600160a01b03166001600160a01b0316815260200160018201548152602001600282015481526020016003820154815260200160048201805461111190611bff565b80601f016020809104026020016040519081016040528092919081815260200182805461113d90611bff565b801561118a5780601f1061115f5761010080835404028352916020019161118a565b820191906000526020600020905b81548152906001019060200180831161116d57829003601f168201915b50505091835250506005919091015460ff16151560209091015292915050565b7f65d7a28e3265b37a6474929f336521b332c1681b933f6cb9f3376673440d862a6111d4816115a9565b610ff8611750565b600881815481106111ec57600080fd5b6000918252602090912060069091020180546001820154600283015460038401546004850180546001600160a01b0390951696509294919390929061123090611bff565b80601f016020809104026020016040519081016040528092919081815260200182805461125c90611bff565b80156112a95780601f1061127e576101008083540402835291602001916112a9565b820191906000526020600020905b81548152906001019060200180831161128c57829003601f168201915b5050506005909301549192505060ff1686565b6000918252602082815260408084206001600160a01b0393909316845291905290205460ff1690565b60006112f0816115a9565b6101f48211156113395760405162461bcd60e51b8152602060048201526014602482015273084e4d2c8ceca7440cccaca40e8dede40d0d2ced60631b60448201526064016105a1565b600580549083905560408051828152602081018590527f3e7af433b010df0902f945628a14ef63c63e1e5e8306127bde522445a470588f91015b60405180910390a1505050565b6000612710600554836113939190611b2f565b6105139190611b46565b6001600160a01b0381166000908152600960209081526040918290208054835181840281018401909452808452606093928301828280156113fd57602002820191906000526020600020905b8154815260200190600101908083116113e9575b50505050509050919050565b6000611414816115a9565b81831061145c5760405162461bcd60e51b81526020600482015260166024820152754272696467653a20696e76616c6964206c696d69747360501b60448201526064016105a1565b6003839055600482905560408051848152602081018490527fcfc62648bfe6689bfdf06f50d3233f77d9e91b33d62e0b52350865779cd831519101611373565b600960205281600052604060002081815481106114b857600080fd5b90600052602060002001600091509150505481565b6000828152602081905260409020600101546114e8816115a9565b610a7e8383611693565b60006114fd816115a9565b6001600160a01b03821661154f5760405162461bcd60e51b8152602060048201526019602482015278109c9a5919d94e881a5b9d985b1a59081c9958da5c1a595b9d603a1b60448201526064016105a1565b600680546001600160a01b038481166001600160a01b031983168117909355604080519190921680825260208201939093527faaebcf1bfa00580e41d966056b48521fa9f202645c86d4ddf28113e617c1b1d39101611373565b610ff8813361178b565b60015460ff16156115d75760405163d93c066560e01b815260040160405180910390fd5b565b60028054036115fb57604051633ee5aeb560e01b815260040160405180910390fd5b60028055565b600061160d83836112bc565b61168b576000838152602081815260408083206001600160a01b03861684529091529020805460ff191660011790556116433390565b6001600160a01b0316826001600160a01b0316847f2f8788117e7eff1d82e926ec794901d17c78024a50270940304540a733656f0d60405160405180910390a4506001610513565b506000610513565b600061169f83836112bc565b1561168b576000838152602081815260408083206001600160a01b0386168085529252808320805460ff1916905551339286917ff6391f5c32d9c69d2a47ea670b442974b53935d1edc7fd64eb21e047a839171b9190a4506001610513565b6117066117c8565b6001805460ff191690557f5db9ee0a495bf2e6ff9c91a7834c1ba4fdd244a5e8aa4e537bd38aeae4b073aa335b6040516001600160a01b03909116815260200160405180910390a1565b6117586115b3565b6001805460ff1916811790557f62e78cea01bee320cd4e420270b5ea74000d11b0c9f74754ebdbfc544b05a25833611733565b61179582826112bc565b6117c45760405163e2517d3f60e01b81526001600160a01b0382166004820152602481018390526044016105a1565b5050565b60015460ff166115d757604051638dfc202b60e01b815260040160405180910390fd5b6000602082840312156117fd57600080fd5b81356001600160e01b03198116811461181557600080fd5b9392505050565b60006020828403121561182e57600080fd5b5035919050565b80356001600160a01b038116811461184c57600080fd5b919050565b60008083601f84011261186357600080fd5b50813567ffffffffffffffff81111561187b57600080fd5b60208301915083602082850101111561189357600080fd5b9250929050565b600080600080606085870312156118b057600080fd5b6118b985611835565b935060208501359250604085013567ffffffffffffffff8111156118dc57600080fd5b6118e887828801611851565b95989497509550505050565b6000806040838503121561190757600080fd5b8235915061191760208401611835565b90509250929050565b60008060006040848603121561193557600080fd5b83359250602084013567ffffffffffffffff81111561195357600080fd5b61195f86828701611851565b9497909650939450505050565b6000815180845260005b8181101561199257602081850181015186830182015201611976565b506000602082860101526020601f19601f83011685010191505092915050565b6020815260018060a01b0382511660208201526020820151604082015260408201516060820152606082015160808201526000608083015160c060a08401526119fe60e084018261196c565b905060a0840151151560c08401528091505092915050565b60018060a01b038716815285602082015284604082015283606082015260c060808201526000611a4960c083018561196c565b905082151560a0830152979650505050505050565b600060208284031215611a7057600080fd5b61181582611835565b6020808252825182820181905260009190848201906040850190845b81811015611ab157835183529284019291840191600101611a95565b50909695505050505050565b60008060408385031215611ad057600080fd5b50508035926020909101359150565b60008060408385031215611af257600080fd5b611afb83611835565b946020939093013593505050565b8183823760009101908152919050565b634e487b7160e01b600052601160045260246000fd5b808202811582820484141761051357610513611b19565b600082611b6357634e487b7160e01b600052601260045260246000fd5b500490565b8181038181111561051357610513611b19565b81835281816020850137506000828201602090810191909152601f909101601f19169091010190565b60018060a01b0385168152836020820152606060408201526000611bcc606083018486611b7b565b9695505050505050565b8082018082111561051357610513611b19565b634e487b7160e01b600052604160045260246000fd5b600181811c90821680611c1357607f821691505b602082108103611c3357634e487b7160e01b600052602260045260246000fd5b50919050565b601f821115610f8e57600081815260208120601f850160051c81016020861015611c605750805b601f850160051c820191505b81811015611c7f57828155600101611c6c565b505050505050565b815167ffffffffffffffff811115611ca157611ca1611be9565b611cb581611caf8454611bff565b84611c39565b602080601f831160018114611cea5760008415611cd25750858301515b600019600386901b1c1916600185901b178555611c7f565b600085815260208120601f198616915b82811015611d1957888601518255948401946001909101908401611cfa565b5085821015611d375787850151600019600388901b60f8161c191681555b5050505050600190811b01905550565b848152836020820152606060408201526000611bcc606083018486611b7b565b600060208284031215611d7957600080fd5b8151801515811461181557600080fd5b634e487b7160e01b600052603260045260246000fdfea2646970667358221220fc864256b2d18bb1236e4e6af19971e2514571851aab5a76e9cb8600d19acaae64736f6c63430008140033","opcodes":"PUSH1 0xA0 PUSH1 0x40 MSTORE PUSH9 0x56BC75E2D63100000 PUSH1 0x3 SSTORE PUSH11 0x84595161401484A000000 PUSH1 0x4 SSTORE PUSH1 0xA PUSH1 0x5 SSTORE CALLVALUE DUP1 ISZERO PUSH3 0x32 JUMPI PUSH1 0x0 DUP1 REVERT JUMPDEST POP PUSH1 0x40 MLOAD PUSH3 0x2126 CODESIZE SUB DUP1 PUSH3 0x2126 DUP4 CODECOPY DUP2 ADD PUSH1 0x40 DUP2 SWAP1 MSTORE PUSH3 0x55 SWAP2 PUSH3 0x2C8 JUMP JUMPDEST PUSH1 0x1 PUSH1 0x2 SSTORE PUSH1 0x1 PUSH1 0x1 PUSH1 0xA0 SHL SUB DUP4 AND PUSH3 0xB6 JUMPI PUSH1 0x40 MLOAD PUSH3 0x461BCD PUSH1 0xE5 SHL DUP2 MSTORE PUSH1 0x20 PUSH1 0x4 DUP3 ADD MSTORE PUSH1 0x1D PUSH1 0x24 DUP3 ADD MSTORE PUSH32 0x4272696467653A20696E76616C69642077454447452061646472657373000000 PUSH1 0x44 DUP3 ADD MSTORE PUSH1 0x64 ADD JUMPDEST PUSH1 0x40 MLOAD DUP1 SWAP2 SUB SWAP1 REVERT JUMPDEST PUSH1 0x1 PUSH1 0x1 PUSH1 0xA0 SHL SUB DUP3 AND PUSH3 0x10E JUMPI PUSH1 0x40 MLOAD PUSH3 0x461BCD PUSH1 0xE5 SHL DUP2 MSTORE PUSH1 0x20 PUSH1 0x4 DUP3 ADD MSTORE PUSH1 0x1D PUSH1 0x24 DUP3 ADD MSTORE PUSH32 0x4272696467653A20696E76616C69642061646D696E2061646472657373000000 PUSH1 0x44 DUP3 ADD MSTORE PUSH1 0x64 ADD PUSH3 0xAD JUMP JUMPDEST PUSH1 0x1 PUSH1 0x1 PUSH1 0xA0 SHL SUB DUP2 AND PUSH3 0x166 JUMPI PUSH1 0x40 MLOAD PUSH3 0x461BCD PUSH1 0xE5 SHL DUP2 MSTORE PUSH1 0x20 PUSH1 0x4 DUP3 ADD MSTORE PUSH1 0x1D PUSH1 0x24 DUP3 ADD MSTORE PUSH32 0x4272696467653A20696E76616C69642066656520726563697069656E74000000 PUSH1 0x44 DUP3 ADD MSTORE PUSH1 0x64 ADD PUSH3 0xAD JUMP JUMPDEST PUSH1 0x1 PUSH1 0x1 PUSH1 0xA0 SHL SUB DUP4 DUP2 AND PUSH1 0x80 MSTORE PUSH1 0x6 DUP1 SLOAD PUSH1 0x1 PUSH1 0x1 PUSH1 0xA0 SHL SUB NOT AND SWAP2 DUP4 AND SWAP2 SWAP1 SWAP2 OR SWAP1 SSTORE PUSH3 0x198 PUSH1 0x0 DUP4 PUSH3 0x1FC JUMP JUMPDEST POP PUSH3 0x1C5 PUSH32 0xE2B7FB3B832174769106DAEBCFD6D1970523240DDA11281102DB9363B83B0DC4 DUP4 PUSH3 0x1FC JUMP JUMPDEST POP PUSH3 0x1F2 PUSH32 0x65D7A28E3265B37A6474929F336521B332C1681B933F6CB9F3376673440D862A DUP4 PUSH3 0x1FC JUMP JUMPDEST POP POP POP POP PUSH3 0x312 JUMP JUMPDEST PUSH1 0x0 DUP3 DUP2 MSTORE PUSH1 0x20 DUP2 DUP2 MSTORE PUSH1 0x40 DUP1 DUP4 KECCAK256 PUSH1 0x1 PUSH1 0x1 PUSH1 0xA0 SHL SUB DUP6 AND DUP5 MSTORE SWAP1 SWAP2 MSTORE DUP2 KECCAK256 SLOAD PUSH1 0xFF AND PUSH3 0x2A1 JUMPI PUSH1 0x0 DUP4 DUP2 MSTORE PUSH1 0x20 DUP2 DUP2 MSTORE PUSH1 0x40 DUP1 DUP4 KECCAK256 PUSH1 0x1 PUSH1 0x1 PUSH1 0xA0 SHL SUB DUP7 AND DUP5 MSTORE SWAP1 SWAP2 MSTORE SWAP1 KECCAK256 DUP1 SLOAD PUSH1 0xFF NOT AND PUSH1 0x1 OR SWAP1 SSTORE PUSH3 0x258 CALLER SWAP1 JUMP JUMPDEST PUSH1 0x1 PUSH1 0x1 PUSH1 0xA0 SHL SUB AND DUP3 PUSH1 0x1 PUSH1 0x1 PUSH1 0xA0 SHL SUB AND DUP5 PUSH32 0x2F8788117E7EFF1D82E926EC794901D17C78024A50270940304540A733656F0D PUSH1 0x40 MLOAD PUSH1 0x40 MLOAD DUP1 SWAP2 SUB SWAP1 LOG4 POP PUSH1 0x1 PUSH3 0x2A5 JUMP JUMPDEST POP PUSH1 0x0 JUMPDEST SWAP3 SWAP2 POP POP JUMP JUMPDEST DUP1 MLOAD PUSH1 0x1 PUSH1 0x1 PUSH1 0xA0 SHL SUB DUP2 AND DUP2 EQ PUSH3 0x2C3 JUMPI PUSH1 0x0 DUP1 REVERT JUMPDEST SWAP2 SWAP1 POP JUMP JUMPDEST PUSH1 0x0 DUP1 PUSH1 0x0 PUSH1 0x60 DUP5 DUP7 SUB SLT ISZERO PUSH3 0x2DE JUMPI PUSH1 0x0 DUP1 REVERT JUMPDEST PUSH3 0x2E9 DUP5 PUSH3 0x2AB JUMP JUMPDEST SWAP3 POP PUSH3 0x2F9 PUSH1 0x20 DUP6 ADD PUSH3 0x2AB JUMP JUMPDEST SWAP2 POP PUSH3 0x309 PUSH1 0x40 DUP6 ADD PUSH3 0x2AB JUMP JUMPDEST SWAP1 POP SWAP3 POP SWAP3 POP SWAP3 JUMP JUMPDEST PUSH1 0x80 MLOAD PUSH2 0x1DD5 PUSH3 0x351 PUSH1 0x0 CODECOPY PUSH1 0x0 DUP2 DUP2 PUSH2 0x42A ADD MSTORE DUP2 DUP2 PUSH2 0x745 ADD MSTORE DUP2 DUP2 PUSH2 0x7D5 ADD MSTORE DUP2 DUP2 PUSH2 0xBE7 ADD MSTORE DUP2 DUP2 PUSH2 0xCDC ADD MSTORE PUSH2 0xDB3 ADD MSTORE PUSH2 0x1DD5 PUSH1 0x0 RETURN INVALID PUSH1 0x80 PUSH1 0x40 MSTORE CALLVALUE DUP1 ISZERO PUSH2 0x10 JUMPI PUSH1 0x0 DUP1 REVERT JUMPDEST POP PUSH1 0x4 CALLDATASIZE LT PUSH2 0x1FB JUMPI PUSH1 0x0 CALLDATALOAD PUSH1 0xE0 SHR DUP1 PUSH4 0x8456CB59 GT PUSH2 0x11A JUMPI DUP1 PUSH4 0xA217FDDF GT PUSH2 0xAD JUMPI DUP1 PUSH4 0xC3C22475 GT PUSH2 0x7C JUMPI DUP1 PUSH4 0xC3C22475 EQ PUSH2 0x483 JUMPI DUP1 PUSH4 0xD547741F EQ PUSH2 0x48C JUMPI DUP1 PUSH4 0xDAD39DCF EQ PUSH2 0x49F JUMPI DUP1 PUSH4 0xE63AB1E9 EQ PUSH2 0x4A8 JUMPI DUP1 PUSH4 0xE74B981B EQ PUSH2 0x4CF JUMPI PUSH1 0x0 DUP1 REVERT JUMPDEST DUP1 PUSH4 0xA217FDDF EQ PUSH2 0x44C JUMPI DUP1 PUSH4 0xA3E13D81 EQ PUSH2 0x454 JUMPI DUP1 PUSH4 0xB48C4B45 EQ PUSH2 0x467 JUMPI DUP1 PUSH4 0xBC063E1A EQ PUSH2 0x47A JUMPI PUSH1 0x0 DUP1 REVERT JUMPDEST DUP1 PUSH4 0x998CDF83 GT PUSH2 0xE9 JUMPI DUP1 PUSH4 0x998CDF83 EQ PUSH2 0x3DF JUMPI DUP1 PUSH4 0x99A5D747 EQ PUSH2 0x3F2 JUMPI DUP1 PUSH4 0x9AA6188F EQ PUSH2 0x405 JUMPI DUP1 PUSH4 0x9AAC7A45 EQ PUSH2 0x425 JUMPI PUSH1 0x0 DUP1 REVERT JUMPDEST DUP1 PUSH4 0x8456CB59 EQ PUSH2 0x378 JUMPI DUP1 PUSH4 0x8E9C234A EQ PUSH2 0x380 JUMPI DUP1 PUSH4 0x91D14854 EQ PUSH2 0x3A5 JUMPI DUP1 PUSH4 0x926D7D7F EQ PUSH2 0x3B8 JUMPI PUSH1 0x0 DUP1 REVERT JUMPDEST DUP1 PUSH4 0x36568ABE GT PUSH2 0x192 JUMPI DUP1 PUSH4 0x60132C9C GT PUSH2 0x161 JUMPI DUP1 PUSH4 0x60132C9C EQ PUSH2 0x33D JUMPI DUP1 PUSH4 0x60C6D8AE EQ PUSH2 0x346 JUMPI DUP1 PUSH4 0x82B12DD7 EQ PUSH2 0x34F JUMPI DUP1 PUSH4 0x82C4F73E EQ PUSH2 0x358 JUMPI PUSH1 0x0 DUP1 REVERT JUMPDEST DUP1 PUSH4 0x36568ABE EQ PUSH2 0x2EC JUMPI DUP1 PUSH4 0x3F4BA83A EQ PUSH2 0x2FF JUMPI DUP1 PUSH4 0x46904840 EQ PUSH2 0x307 JUMPI DUP1 PUSH4 0x5C975ABB EQ PUSH2 0x332 JUMPI PUSH1 0x0 DUP1 REVERT JUMPDEST DUP1 PUSH4 0x248A9CA3 GT PUSH2 0x1CE JUMPI DUP1 PUSH4 0x248A9CA3 EQ PUSH2 0x28E JUMPI DUP1 PUSH4 0x2B8681A7 EQ PUSH2 0x2B1 JUMPI DUP1 PUSH4 0x2F2FF15D EQ PUSH2 0x2C6 JUMPI DUP1 PUSH4 0x305C4142 EQ PUSH2 0x2D9 JUMPI PUSH1 0x0 DUP1 REVERT JUMPDEST DUP1 PUSH4 0x1FFC9A7 EQ PUSH2 0x200 JUMPI DUP1 PUSH4 0x7D9C534 EQ PUSH2 0x228 JUMPI DUP1 PUSH4 0x2165CBB7 EQ PUSH2 0x24B JUMPI DUP1 PUSH4 0x21E495A4 EQ PUSH2 0x277 JUMPI JUMPDEST PUSH1 0x0 DUP1 REVERT JUMPDEST PUSH2 0x213 PUSH2 0x20E CALLDATASIZE PUSH1 0x4 PUSH2 0x17EB JUMP JUMPDEST PUSH2 0x4E2 JUMP JUMPDEST PUSH1 0x40 MLOAD SWAP1 ISZERO ISZERO DUP2 MSTORE PUSH1 0x20 ADD JUMPDEST PUSH1 0x40 MLOAD DUP1 SWAP2 SUB SWAP1 RETURN JUMPDEST PUSH2 0x213 PUSH2 0x236 CALLDATASIZE PUSH1 0x4 PUSH2 0x181C JUMP JUMPDEST PUSH1 0x7 PUSH1 0x20 MSTORE PUSH1 0x0 SWAP1 DUP2 MSTORE PUSH1 0x40 SWAP1 KECCAK256 SLOAD PUSH1 0xFF AND DUP2 JUMP JUMPDEST PUSH1 0xA SLOAD PUSH1 0xB SLOAD PUSH1 0xC SLOAD PUSH1 0x8 SLOAD PUSH1 0x40 DUP1 MLOAD SWAP5 DUP6 MSTORE PUSH1 0x20 DUP6 ADD SWAP4 SWAP1 SWAP4 MSTORE SWAP2 DUP4 ADD MSTORE PUSH1 0x60 DUP3 ADD MSTORE PUSH1 0x80 ADD PUSH2 0x21F JUMP JUMPDEST PUSH2 0x280 PUSH1 0xA SLOAD DUP2 JUMP JUMPDEST PUSH1 0x40 MLOAD SWAP1 DUP2 MSTORE PUSH1 0x20 ADD PUSH2 0x21F JUMP JUMPDEST PUSH2 0x280 PUSH2 0x29C CALLDATASIZE PUSH1 0x4 PUSH2 0x181C JUMP JUMPDEST PUSH1 0x0 SWAP1 DUP2 MSTORE PUSH1 0x20 DUP2 SWAP1 MSTORE PUSH1 0x40 SWAP1 KECCAK256 PUSH1 0x1 ADD SLOAD SWAP1 JUMP JUMPDEST PUSH2 0x2C4 PUSH2 0x2BF CALLDATASIZE PUSH1 0x4 PUSH2 0x189A JUMP JUMPDEST PUSH2 0x519 JUMP JUMPDEST STOP JUMPDEST PUSH2 0x2C4 PUSH2 0x2D4 CALLDATASIZE PUSH1 0x4 PUSH2 0x18F4 JUMP JUMPDEST PUSH2 0xA59 JUMP JUMPDEST PUSH2 0x2C4 PUSH2 0x2E7 CALLDATASIZE PUSH1 0x4 PUSH2 0x1920 JUMP JUMPDEST PUSH2 0xA84 JUMP JUMPDEST PUSH2 0x2C4 PUSH2 0x2FA CALLDATASIZE PUSH1 0x4 PUSH2 0x18F4 JUMP JUMPDEST PUSH2 0xF93 JUMP JUMPDEST PUSH2 0x2C4 PUSH2 0xFC6 JUMP JUMPDEST PUSH1 0x6 SLOAD PUSH2 0x31A SWAP1 PUSH1 0x1 PUSH1 0x1 PUSH1 0xA0 SHL SUB AND DUP2 JUMP JUMPDEST PUSH1 0x40 MLOAD PUSH1 0x1 PUSH1 0x1 PUSH1 0xA0 SHL SUB SWAP1 SWAP2 AND DUP2 MSTORE PUSH1 0x20 ADD PUSH2 0x21F JUMP JUMPDEST PUSH1 0x1 SLOAD PUSH1 0xFF AND PUSH2 0x213 JUMP JUMPDEST PUSH2 0x280 PUSH1 0x4 SLOAD DUP2 JUMP JUMPDEST PUSH2 0x280 PUSH1 0xC SLOAD DUP2 JUMP JUMPDEST PUSH2 0x280 PUSH1 0x5 SLOAD DUP2 JUMP JUMPDEST PUSH2 0x36B PUSH2 0x366 CALLDATASIZE PUSH1 0x4 PUSH2 0x181C JUMP JUMPDEST PUSH2 0xFFB JUMP JUMPDEST PUSH1 0x40 MLOAD PUSH2 0x21F SWAP2 SWAP1 PUSH2 0x19B2 JUMP JUMPDEST PUSH2 0x2C4 PUSH2 0x11AA JUMP JUMPDEST PUSH2 0x393 PUSH2 0x38E CALLDATASIZE PUSH1 0x4 PUSH2 0x181C JUMP JUMPDEST PUSH2 0x11DC JUMP JUMPDEST PUSH1 0x40 MLOAD PUSH2 0x21F SWAP7 SWAP6 SWAP5 SWAP4 SWAP3 SWAP2 SWAP1 PUSH2 0x1A16 JUMP JUMPDEST PUSH2 0x213 PUSH2 0x3B3 CALLDATASIZE PUSH1 0x4 PUSH2 0x18F4 JUMP JUMPDEST PUSH2 0x12BC JUMP JUMPDEST PUSH2 0x280 PUSH32 0xE2B7FB3B832174769106DAEBCFD6D1970523240DDA11281102DB9363B83B0DC4 DUP2 JUMP JUMPDEST PUSH2 0x2C4 PUSH2 0x3ED CALLDATASIZE PUSH1 0x4 PUSH2 0x181C JUMP JUMPDEST PUSH2 0x12E5 JUMP JUMPDEST PUSH2 0x280 PUSH2 0x400 CALLDATASIZE PUSH1 0x4 PUSH2 0x181C JUMP JUMPDEST PUSH2 0x1380 JUMP JUMPDEST PUSH2 0x418 PUSH2 0x413 CALLDATASIZE PUSH1 0x4 PUSH2 0x1A5E JUMP JUMPDEST PUSH2 0x139D JUMP JUMPDEST PUSH1 0x40 MLOAD PUSH2 0x21F SWAP2 SWAP1 PUSH2 0x1A79 JUMP JUMPDEST PUSH2 0x31A PUSH32 0x0 DUP2 JUMP JUMPDEST PUSH2 0x280 PUSH1 0x0 DUP2 JUMP JUMPDEST PUSH2 0x2C4 PUSH2 0x462 CALLDATASIZE PUSH1 0x4 PUSH2 0x1ABD JUMP JUMPDEST PUSH2 0x1409 JUMP JUMPDEST PUSH2 0x280 PUSH2 0x475 CALLDATASIZE PUSH1 0x4 PUSH2 0x1ADF JUMP JUMPDEST PUSH2 0x149C JUMP JUMPDEST PUSH2 0x280 PUSH2 0x1F4 DUP2 JUMP JUMPDEST PUSH2 0x280 PUSH1 0x3 SLOAD DUP2 JUMP JUMPDEST PUSH2 0x2C4 PUSH2 0x49A CALLDATASIZE PUSH1 0x4 PUSH2 0x18F4 JUMP JUMPDEST PUSH2 0x14CD JUMP JUMPDEST PUSH2 0x280 PUSH1 0xB SLOAD DUP2 JUMP JUMPDEST PUSH2 0x280 PUSH32 0x65D7A28E3265B37A6474929F336521B332C1681B933F6CB9F3376673440D862A DUP2 JUMP JUMPDEST PUSH2 0x2C4 PUSH2 0x4DD CALLDATASIZE PUSH1 0x4 PUSH2 0x1A5E JUMP JUMPDEST PUSH2 0x14F2 JUMP JUMPDEST PUSH1 0x0 PUSH1 0x1 PUSH1 0x1 PUSH1 0xE0 SHL SUB NOT DUP3 AND PUSH4 0x7965DB0B PUSH1 0xE0 SHL EQ DUP1 PUSH2 0x513 JUMPI POP PUSH4 0x1FFC9A7 PUSH1 0xE0 SHL PUSH1 0x1 PUSH1 0x1 PUSH1 0xE0 SHL SUB NOT DUP4 AND EQ JUMPDEST SWAP3 SWAP2 POP POP JUMP JUMPDEST PUSH32 0xE2B7FB3B832174769106DAEBCFD6D1970523240DDA11281102DB9363B83B0DC4 PUSH2 0x543 DUP2 PUSH2 0x15A9 JUMP JUMPDEST PUSH2 0x54B PUSH2 0x15B3 JUMP JUMPDEST PUSH2 0x553 PUSH2 0x15D9 JUMP JUMPDEST PUSH1 0x1 PUSH1 0x1 PUSH1 0xA0 SHL SUB DUP6 AND PUSH2 0x5AA JUMPI PUSH1 0x40 MLOAD PUSH3 0x461BCD PUSH1 0xE5 SHL DUP2 MSTORE PUSH1 0x20 PUSH1 0x4 DUP3 ADD MSTORE PUSH1 0x19 PUSH1 0x24 DUP3 ADD MSTORE PUSH25 0x109C9A5919D94E881A5B9D985B1A59081C9958DA5C1A595B9D PUSH1 0x3A SHL PUSH1 0x44 DUP3 ADD MSTORE PUSH1 0x64 ADD JUMPDEST PUSH1 0x40 MLOAD DUP1 SWAP2 SUB SWAP1 REVERT JUMPDEST PUSH1 0x3 SLOAD DUP5 LT ISZERO PUSH2 0x5FC JUMPI PUSH1 0x40 MLOAD PUSH3 0x461BCD PUSH1 0xE5 SHL DUP2 MSTORE PUSH1 0x20 PUSH1 0x4 DUP3 ADD MSTORE PUSH1 0x1C PUSH1 0x24 DUP3 ADD MSTORE PUSH32 0x4272696467653A20616D6F756E742062656C6F77206D696E696D756D00000000 PUSH1 0x44 DUP3 ADD MSTORE PUSH1 0x64 ADD PUSH2 0x5A1 JUMP JUMPDEST PUSH1 0x4 SLOAD DUP5 GT ISZERO PUSH2 0x64E JUMPI PUSH1 0x40 MLOAD PUSH3 0x461BCD PUSH1 0xE5 SHL DUP2 MSTORE PUSH1 0x20 PUSH1 0x4 DUP3 ADD MSTORE PUSH1 0x1E PUSH1 0x24 DUP3 ADD MSTORE PUSH32 0x4272696467653A20616D6F756E742065786365656473206D6178696D756D0000 PUSH1 0x44 DUP3 ADD MSTORE PUSH1 0x64 ADD PUSH2 0x5A1 JUMP JUMPDEST PUSH1 0x0 DUP4 DUP4 PUSH1 0x40 MLOAD PUSH1 0x20 ADD PUSH2 0x663 SWAP3 SWAP2 SWAP1 PUSH2 0x1B09 JUMP JUMPDEST PUSH1 0x40 DUP1 MLOAD PUSH1 0x1F NOT DUP2 DUP5 SUB ADD DUP2 MSTORE SWAP2 DUP2 MSTORE DUP2 MLOAD PUSH1 0x20 SWAP3 DUP4 ADD KECCAK256 PUSH1 0x0 DUP2 DUP2 MSTORE PUSH1 0x7 SWAP1 SWAP4 MSTORE SWAP2 KECCAK256 SLOAD SWAP1 SWAP2 POP PUSH1 0xFF AND ISZERO PUSH2 0x6E9 JUMPI PUSH1 0x40 MLOAD PUSH3 0x461BCD PUSH1 0xE5 SHL DUP2 MSTORE PUSH1 0x20 PUSH1 0x4 DUP3 ADD MSTORE PUSH1 0x25 PUSH1 0x24 DUP3 ADD MSTORE PUSH32 0x4272696467653A207472616E73616374696F6E20616C72656164792070726F63 PUSH1 0x44 DUP3 ADD MSTORE PUSH5 0x195CDCD959 PUSH1 0xDA SHL PUSH1 0x64 DUP3 ADD MSTORE PUSH1 0x84 ADD PUSH2 0x5A1 JUMP JUMPDEST PUSH1 0x0 DUP2 DUP2 MSTORE PUSH1 0x7 PUSH1 0x20 MSTORE PUSH1 0x40 DUP2 KECCAK256 DUP1 SLOAD PUSH1 0xFF NOT AND PUSH1 0x1 OR SWAP1 SSTORE PUSH1 0x5 SLOAD PUSH2 0x2710 SWAP1 PUSH2 0x713 SWAP1 DUP9 PUSH2 0x1B2F JUMP JUMPDEST PUSH2 0x71D SWAP2 SWAP1 PUSH2 0x1B46 JUMP JUMPDEST SWAP1 POP PUSH1 0x0 PUSH2 0x72B DUP3 DUP9 PUSH2 0x1B68 JUMP JUMPDEST PUSH1 0x40 MLOAD PUSH4 0x67B65735 PUSH1 0xE0 SHL DUP2 MSTORE SWAP1 SWAP2 POP PUSH1 0x1 PUSH1 0x1 PUSH1 0xA0 SHL SUB PUSH32 0x0 AND SWAP1 PUSH4 0x67B65735 SWAP1 PUSH2 0x780 SWAP1 DUP12 SWAP1 DUP6 SWAP1 DUP12 SWAP1 DUP12 SWAP1 PUSH1 0x4 ADD PUSH2 0x1BA4 JUMP JUMPDEST PUSH1 0x0 PUSH1 0x40 MLOAD DUP1 DUP4 SUB DUP2 PUSH1 0x0 DUP8 DUP1 EXTCODESIZE ISZERO DUP1 ISZERO PUSH2 0x79A JUMPI PUSH1 0x0 DUP1 REVERT JUMPDEST POP GAS CALL ISZERO DUP1 ISZERO PUSH2 0x7AE JUMPI RETURNDATASIZE PUSH1 0x0 DUP1 RETURNDATACOPY RETURNDATASIZE PUSH1 0x0 REVERT JUMPDEST POP POP POP POP PUSH1 0x0 DUP3 GT ISZERO PUSH2 0x85E JUMPI PUSH1 0x6 SLOAD PUSH1 0x40 MLOAD PUSH4 0x67B65735 PUSH1 0xE0 SHL DUP2 MSTORE PUSH1 0x1 PUSH1 0x1 PUSH1 0xA0 SHL SUB PUSH32 0x0 DUP2 AND SWAP3 PUSH4 0x67B65735 SWAP3 PUSH2 0x814 SWAP3 SWAP2 SWAP1 SWAP2 AND SWAP1 DUP7 SWAP1 DUP12 SWAP1 DUP12 SWAP1 PUSH1 0x4 ADD PUSH2 0x1BA4 JUMP JUMPDEST PUSH1 0x0 PUSH1 0x40 MLOAD DUP1 DUP4 SUB DUP2 PUSH1 0x0 DUP8 DUP1 EXTCODESIZE ISZERO DUP1 ISZERO PUSH2 0x82E JUMPI PUSH1 0x0 DUP1 REVERT JUMPDEST POP GAS CALL ISZERO DUP1 ISZERO PUSH2 0x842 JUMPI RETURNDATASIZE PUSH1 0x0 DUP1 RETURNDATACOPY RETURNDATASIZE PUSH1 0x0 REVERT JUMPDEST POP POP POP POP DUP2 PUSH1 0xC PUSH1 0x0 DUP3 DUP3 SLOAD PUSH2 0x858 SWAP2 SWAP1 PUSH2 0x1BD6 JUMP JUMPDEST SWAP1 SWAP2 SSTORE POP POP JUMPDEST PUSH1 0x8 DUP1 SLOAD PUSH1 0x40 DUP1 MLOAD PUSH1 0xC0 DUP2 ADD DUP3 MSTORE PUSH1 0x1 PUSH1 0x1 PUSH1 0xA0 SHL SUB DUP13 DUP2 AND DUP3 MSTORE PUSH1 0x20 DUP1 DUP4 ADD DUP8 DUP2 MSTORE DUP4 DUP6 ADD DUP10 DUP2 MSTORE TIMESTAMP PUSH1 0x60 DUP7 ADD SWAP1 DUP2 MSTORE DUP7 MLOAD SWAP4 DUP5 ADD SWAP1 SWAP7 MSTORE PUSH1 0x0 DUP1 DUP5 MSTORE PUSH1 0x80 DUP7 ADD SWAP4 DUP5 MSTORE PUSH1 0x1 PUSH1 0xA0 DUP8 ADD DUP2 SWAP1 MSTORE DUP9 ADD DUP10 SSTORE SWAP8 SWAP1 SWAP8 MSTORE DUP4 MLOAD PUSH32 0xF3F7A9FE364FAAB93B216DA50A3214154F22A0A2B415B23A84C8169E8B636EE3 PUSH1 0x6 DUP9 MUL SWAP1 DUP2 ADD DUP1 SLOAD PUSH1 0x1 PUSH1 0x1 PUSH1 0xA0 SHL SUB NOT AND SWAP3 SWAP1 SWAP6 AND SWAP2 SWAP1 SWAP2 OR DUP5 SSTORE SWAP1 MLOAD PUSH32 0xF3F7A9FE364FAAB93B216DA50A3214154F22A0A2B415B23A84C8169E8B636EE4 DUP3 ADD SSTORE SWAP6 MLOAD PUSH32 0xF3F7A9FE364FAAB93B216DA50A3214154F22A0A2B415B23A84C8169E8B636EE5 DUP8 ADD SSTORE SWAP3 MLOAD PUSH32 0xF3F7A9FE364FAAB93B216DA50A3214154F22A0A2B415B23A84C8169E8B636EE6 DUP7 ADD SSTORE SWAP2 MLOAD SWAP3 SWAP4 SWAP1 SWAP3 PUSH32 0xF3F7A9FE364FAAB93B216DA50A3214154F22A0A2B415B23A84C8169E8B636EE7 SWAP1 SWAP2 ADD SWAP1 PUSH2 0x99B SWAP1 DUP3 PUSH2 0x1C87 JUMP JUMPDEST POP PUSH1 0xA0 SWAP2 SWAP1 SWAP2 ADD MLOAD PUSH1 0x5 SWAP1 SWAP2 ADD DUP1 SLOAD PUSH1 0xFF NOT AND SWAP2 ISZERO ISZERO SWAP2 SWAP1 SWAP2 OR SWAP1 SSTORE PUSH1 0x1 PUSH1 0x1 PUSH1 0xA0 SHL SUB DUP10 AND PUSH1 0x0 SWAP1 DUP2 MSTORE PUSH1 0x9 PUSH1 0x20 SWAP1 DUP2 MSTORE PUSH1 0x40 DUP3 KECCAK256 DUP1 SLOAD PUSH1 0x1 DUP2 ADD DUP3 SSTORE SWAP1 DUP4 MSTORE SWAP1 DUP3 KECCAK256 ADD DUP3 SWAP1 SSTORE PUSH1 0xA DUP1 SLOAD DUP11 SWAP3 SWAP1 PUSH2 0x9F5 SWAP1 DUP5 SWAP1 PUSH2 0x1BD6 JUMP JUMPDEST SWAP3 POP POP DUP2 SWAP1 SSTORE POP DUP1 DUP10 PUSH1 0x1 PUSH1 0x1 PUSH1 0xA0 SHL SUB AND PUSH32 0xB6B19D7926AE19A267F0C2BCB927B4976BBAEF50B561B09CDC314B95377FBE49 DUP5 DUP7 DUP12 DUP12 PUSH1 0x40 MLOAD PUSH2 0xA3C SWAP5 SWAP4 SWAP3 SWAP2 SWAP1 PUSH2 0x1D47 JUMP JUMPDEST PUSH1 0x40 MLOAD DUP1 SWAP2 SUB SWAP1 LOG3 POP POP POP POP PUSH2 0xA52 PUSH1 0x1 PUSH1 0x2 SSTORE JUMP JUMPDEST POP POP POP POP POP JUMP JUMPDEST PUSH1 0x0 DUP3 DUP2 MSTORE PUSH1 0x20 DUP2 SWAP1 MSTORE PUSH1 0x40 SWAP1 KECCAK256 PUSH1 0x1 ADD SLOAD PUSH2 0xA74 DUP2 PUSH2 0x15A9 JUMP JUMPDEST PUSH2 0xA7E DUP4 DUP4 PUSH2 0x1601 JUMP JUMPDEST POP POP POP POP JUMP JUMPDEST PUSH2 0xA8C PUSH2 0x15B3 JUMP JUMPDEST PUSH2 0xA94 PUSH2 0x15D9 JUMP JUMPDEST PUSH1 0x3 SLOAD DUP4 LT ISZERO PUSH2 0xAE6 JUMPI PUSH1 0x40 MLOAD PUSH3 0x461BCD PUSH1 0xE5 SHL DUP2 MSTORE PUSH1 0x20 PUSH1 0x4 DUP3 ADD MSTORE PUSH1 0x1C PUSH1 0x24 DUP3 ADD MSTORE PUSH32 0x4272696467653A20616D6F756E742062656C6F77206D696E696D756D00000000 PUSH1 0x44 DUP3 ADD MSTORE PUSH1 0x64 ADD PUSH2 0x5A1 JUMP JUMPDEST PUSH1 0x4 SLOAD DUP4 GT ISZERO PUSH2 0xB38 JUMPI PUSH1 0x40 MLOAD PUSH3 0x461BCD PUSH1 0xE5 SHL DUP2 MSTORE PUSH1 0x20 PUSH1 0x4 DUP3 ADD MSTORE PUSH1 0x1E PUSH1 0x24 DUP3 ADD MSTORE PUSH32 0x4272696467653A20616D6F756E742065786365656473206D6178696D756D0000 PUSH1 0x44 DUP3 ADD MSTORE PUSH1 0x64 ADD PUSH2 0x5A1 JUMP JUMPDEST DUP1 PUSH2 0xB85 JUMPI PUSH1 0x40 MLOAD PUSH3 0x461BCD PUSH1 0xE5 SHL DUP2 MSTORE PUSH1 0x20 PUSH1 0x4 DUP3 ADD MSTORE PUSH1 0x1E PUSH1 0x24 DUP3 ADD MSTORE PUSH32 0x4272696467653A20696E76616C69642045646765414920616464726573730000 PUSH1 0x44 DUP3 ADD MSTORE PUSH1 0x64 ADD PUSH2 0x5A1 JUMP JUMPDEST PUSH1 0x0 PUSH2 0x2710 PUSH1 0x5 SLOAD DUP6 PUSH2 0xB98 SWAP2 SWAP1 PUSH2 0x1B2F JUMP JUMPDEST PUSH2 0xBA2 SWAP2 SWAP1 PUSH2 0x1B46 JUMP JUMPDEST SWAP1 POP PUSH1 0x0 PUSH2 0xBB0 DUP3 DUP7 PUSH2 0x1B68 JUMP JUMPDEST SWAP1 POP DUP2 ISZERO PUSH2 0xCBA JUMPI PUSH1 0x6 SLOAD PUSH1 0x40 MLOAD PUSH4 0x23B872DD PUSH1 0xE0 SHL DUP2 MSTORE CALLER PUSH1 0x4 DUP3 ADD MSTORE PUSH1 0x1 PUSH1 0x1 PUSH1 0xA0 SHL SUB SWAP2 DUP3 AND PUSH1 0x24 DUP3 ADD MSTORE PUSH1 0x44 DUP2 ADD DUP5 SWAP1 MSTORE PUSH32 0x0 SWAP1 SWAP2 AND SWAP1 PUSH4 0x23B872DD SWAP1 PUSH1 0x64 ADD PUSH1 0x20 PUSH1 0x40 MLOAD DUP1 DUP4 SUB DUP2 PUSH1 0x0 DUP8 GAS CALL ISZERO DUP1 ISZERO PUSH2 0xC32 JUMPI RETURNDATASIZE PUSH1 0x0 DUP1 RETURNDATACOPY RETURNDATASIZE PUSH1 0x0 REVERT JUMPDEST POP POP POP POP PUSH1 0x40 MLOAD RETURNDATASIZE PUSH1 0x1F NOT PUSH1 0x1F DUP3 ADD AND DUP3 ADD DUP1 PUSH1 0x40 MSTORE POP DUP2 ADD SWAP1 PUSH2 0xC56 SWAP2 SWAP1 PUSH2 0x1D67 JUMP JUMPDEST PUSH2 0xCA2 JUMPI PUSH1 0x40 MLOAD PUSH3 0x461BCD PUSH1 0xE5 SHL DUP2 MSTORE PUSH1 0x20 PUSH1 0x4 DUP3 ADD MSTORE PUSH1 0x1B PUSH1 0x24 DUP3 ADD MSTORE PUSH32 0x4272696467653A20666565207472616E73666572206661696C65640000000000 PUSH1 0x44 DUP3 ADD MSTORE PUSH1 0x64 ADD PUSH2 0x5A1 JUMP JUMPDEST DUP2 PUSH1 0xC PUSH1 0x0 DUP3 DUP3 SLOAD PUSH2 0xCB4 SWAP2 SWAP1 PUSH2 0x1BD6 JUMP JUMPDEST SWAP1 SWAP2 SSTORE POP POP JUMPDEST PUSH1 0x40 MLOAD PUSH4 0x23B872DD PUSH1 0xE0 SHL DUP2 MSTORE CALLER PUSH1 0x4 DUP3 ADD MSTORE ADDRESS PUSH1 0x24 DUP3 ADD MSTORE PUSH1 0x44 DUP2 ADD DUP3 SWAP1 MSTORE PUSH32 0x0 PUSH1 0x1 PUSH1 0x1 PUSH1 0xA0 SHL SUB AND SWAP1 PUSH4 0x23B872DD SWAP1 PUSH1 0x64 ADD PUSH1 0x20 PUSH1 0x40 MLOAD DUP1 DUP4 SUB DUP2 PUSH1 0x0 DUP8 GAS CALL ISZERO DUP1 ISZERO PUSH2 0xD2D JUMPI RETURNDATASIZE PUSH1 0x0 DUP1 RETURNDATACOPY RETURNDATASIZE PUSH1 0x0 REVERT JUMPDEST POP POP POP POP PUSH1 0x40 MLOAD RETURNDATASIZE PUSH1 0x1F NOT PUSH1 0x1F DUP3 ADD AND DUP3 ADD DUP1 PUSH1 0x40 MSTORE POP DUP2 ADD SWAP1 PUSH2 0xD51 SWAP2 SWAP1 PUSH2 0x1D67 JUMP JUMPDEST PUSH2 0xD9D JUMPI PUSH1 0x40 MLOAD PUSH3 0x461BCD PUSH1 0xE5 SHL DUP2 MSTORE PUSH1 0x20 PUSH1 0x4 DUP3 ADD MSTORE PUSH1 0x17 PUSH1 0x24 DUP3 ADD MSTORE PUSH32 0x4272696467653A207472616E73666572206661696C6564000000000000000000 PUSH1 0x44 DUP3 ADD MSTORE PUSH1 0x64 ADD PUSH2 0x5A1 JUMP JUMPDEST PUSH1 0x40 MLOAD PUSH4 0x852CD8D PUSH1 0xE3 SHL DUP2 MSTORE PUSH1 0x4 DUP2 ADD DUP3 SWAP1 MSTORE PUSH32 0x0 PUSH1 0x1 PUSH1 0x1 PUSH1 0xA0 SHL SUB AND SWAP1 PUSH4 0x42966C68 SWAP1 PUSH1 0x24 ADD PUSH1 0x0 PUSH1 0x40 MLOAD DUP1 DUP4 SUB DUP2 PUSH1 0x0 DUP8 DUP1 EXTCODESIZE ISZERO DUP1 ISZERO PUSH2 0xDFF JUMPI PUSH1 0x0 DUP1 REVERT JUMPDEST POP GAS CALL ISZERO DUP1 ISZERO PUSH2 0xE13 JUMPI RETURNDATASIZE PUSH1 0x0 DUP1 RETURNDATACOPY RETURNDATASIZE PUSH1 0x0 REVERT JUMPDEST POP POP PUSH1 0x8 DUP1 SLOAD PUSH1 0x40 DUP1 MLOAD PUSH1 0xC0 DUP2 ADD DUP3 MSTORE CALLER DUP2 MSTORE PUSH1 0x20 DUP1 DUP3 ADD DUP9 SWAP1 MSTORE DUP2 DUP4 ADD DUP10 SWAP1 MSTORE TIMESTAMP PUSH1 0x60 DUP4 ADD MSTORE DUP3 MLOAD PUSH1 0x1F DUP12 ADD DUP3 SWAP1 DIV DUP3 MUL DUP2 ADD DUP3 ADD SWAP1 SWAP4 MSTORE DUP10 DUP4 MSTORE SWAP3 SWAP6 POP SWAP3 SWAP4 POP PUSH1 0x80 DUP4 ADD SWAP2 DUP10 SWAP1 DUP10 SWAP1 DUP2 SWAP1 DUP5 ADD DUP4 DUP3 DUP1 DUP3 DUP5 CALLDATACOPY PUSH1 0x0 SWAP3 ADD DUP3 SWAP1 MSTORE POP SWAP4 DUP6 MSTORE POP POP POP PUSH1 0x20 SWAP2 DUP3 ADD DUP2 SWAP1 MSTORE DUP4 SLOAD PUSH1 0x1 DUP1 DUP3 ADD DUP7 SSTORE SWAP5 DUP3 MSTORE SWAP1 DUP3 SWAP1 KECCAK256 DUP4 MLOAD PUSH1 0x6 SWAP1 SWAP3 MUL ADD DUP1 SLOAD PUSH1 0x1 PUSH1 0x1 PUSH1 0xA0 SHL SUB NOT AND PUSH1 0x1 PUSH1 0x1 PUSH1 0xA0 SHL SUB SWAP1 SWAP3 AND SWAP2 SWAP1 SWAP2 OR DUP2 SSTORE SWAP1 DUP3 ADD MLOAD SWAP3 DUP2 ADD SWAP3 SWAP1 SWAP3 SSTORE PUSH1 0x40 DUP2 ADD MLOAD PUSH1 0x2 DUP4 ADD SSTORE PUSH1 0x60 DUP2 ADD MLOAD PUSH1 0x3 DUP4 ADD SSTORE PUSH1 0x80 DUP2 ADD MLOAD SWAP1 SWAP2 SWAP1 PUSH1 0x4 DUP3 ADD SWAP1 PUSH2 0xEE9 SWAP1 DUP3 PUSH2 0x1C87 JUMP JUMPDEST POP PUSH1 0xA0 SWAP2 SWAP1 SWAP2 ADD MLOAD PUSH1 0x5 SWAP1 SWAP2 ADD DUP1 SLOAD PUSH1 0xFF NOT AND SWAP2 ISZERO ISZERO SWAP2 SWAP1 SWAP2 OR SWAP1 SSTORE CALLER PUSH1 0x0 SWAP1 DUP2 MSTORE PUSH1 0x9 PUSH1 0x20 SWAP1 DUP2 MSTORE PUSH1 0x40 DUP3 KECCAK256 DUP1 SLOAD PUSH1 0x1 DUP2 ADD DUP3 SSTORE SWAP1 DUP4 MSTORE SWAP1 DUP3 KECCAK256 ADD DUP3 SWAP1 SSTORE PUSH1 0xB DUP1 SLOAD DUP9 SWAP3 SWAP1 PUSH2 0xF3A SWAP1 DUP5 SWAP1 PUSH2 0x1BD6 JUMP JUMPDEST SWAP1 SWAP2 SSTORE POP POP PUSH1 0x40 MLOAD DUP2 SWAP1 CALLER SWAP1 PUSH32 0xCDFF45DD53D5072A7D26D9328C4D1FFDEDFB18F56921D7CB984F552D7F412C22 SWAP1 PUSH2 0xF79 SWAP1 DUP7 SWAP1 DUP9 SWAP1 DUP12 SWAP1 DUP12 SWAP1 PUSH2 0x1D47 JUMP JUMPDEST PUSH1 0x40 MLOAD DUP1 SWAP2 SUB SWAP1 LOG3 POP POP POP PUSH2 0xF8E PUSH1 0x1 PUSH1 0x2 SSTORE JUMP JUMPDEST POP POP POP JUMP JUMPDEST PUSH1 0x1 PUSH1 0x1 PUSH1 0xA0 SHL SUB DUP2 AND CALLER EQ PUSH2 0xFBC JUMPI PUSH1 0x40 MLOAD PUSH4 0x334BD919 PUSH1 0xE1 SHL DUP2 MSTORE PUSH1 0x4 ADD PUSH1 0x40 MLOAD DUP1 SWAP2 SUB SWAP1 REVERT JUMPDEST PUSH2 0xF8E DUP3 DUP3 PUSH2 0x1693 JUMP JUMPDEST PUSH32 0x65D7A28E3265B37A6474929F336521B332C1681B933F6CB9F3376673440D862A PUSH2 0xFF0 DUP2 PUSH2 0x15A9 JUMP JUMPDEST PUSH2 0xFF8 PUSH2 0x16FE JUMP JUMPDEST POP JUMP JUMPDEST PUSH2 0x103F PUSH1 0x40 MLOAD DUP1 PUSH1 0xC0 ADD PUSH1 0x40 MSTORE DUP1 PUSH1 0x0 PUSH1 0x1 PUSH1 0x1 PUSH1 0xA0 SHL SUB AND DUP2 MSTORE PUSH1 0x20 ADD PUSH1 0x0 DUP2 MSTORE PUSH1 0x20 ADD PUSH1 0x0 DUP2 MSTORE PUSH1 0x20 ADD PUSH1 0x0 DUP2 MSTORE PUSH1 0x20 ADD PUSH1 0x60 DUP2 MSTORE PUSH1 0x20 ADD PUSH1 0x0 ISZERO ISZERO DUP2 MSTORE POP SWAP1 JUMP JUMPDEST PUSH1 0x8 SLOAD DUP3 LT PUSH2 0x1088 JUMPI PUSH1 0x40 MLOAD PUSH3 0x461BCD PUSH1 0xE5 SHL DUP2 MSTORE PUSH1 0x20 PUSH1 0x4 DUP3 ADD MSTORE PUSH1 0x15 PUSH1 0x24 DUP3 ADD MSTORE PUSH21 0x84E4D2C8CECA7440D2DCECC2D8D2C840D2DCC8CAF PUSH1 0x5B SHL PUSH1 0x44 DUP3 ADD MSTORE PUSH1 0x64 ADD PUSH2 0x5A1 JUMP JUMPDEST PUSH1 0x8 DUP3 DUP2 SLOAD DUP2 LT PUSH2 0x109B JUMPI PUSH2 0x109B PUSH2 0x1D89 JUMP JUMPDEST SWAP1 PUSH1 0x0 MSTORE PUSH1 0x20 PUSH1 0x0 KECCAK256 SWAP1 PUSH1 0x6 MUL ADD PUSH1 0x40 MLOAD DUP1 PUSH1 0xC0 ADD PUSH1 0x40 MSTORE SWAP1 DUP2 PUSH1 0x0 DUP3 ADD PUSH1 0x0 SWAP1 SLOAD SWAP1 PUSH2 0x100 EXP SWAP1 DIV PUSH1 0x1 PUSH1 0x1 PUSH1 0xA0 SHL SUB AND PUSH1 0x1 PUSH1 0x1 PUSH1 0xA0 SHL SUB AND PUSH1 0x1 PUSH1 0x1 PUSH1 0xA0 SHL SUB AND DUP2 MSTORE PUSH1 0x20 ADD PUSH1 0x1 DUP3 ADD SLOAD DUP2 MSTORE PUSH1 0x20 ADD PUSH1 0x2 DUP3 ADD SLOAD DUP2 MSTORE PUSH1 0x20 ADD PUSH1 0x3 DUP3 ADD SLOAD DUP2 MSTORE PUSH1 0x20 ADD PUSH1 0x4 DUP3 ADD DUP1 SLOAD PUSH2 0x1111 SWAP1 PUSH2 0x1BFF JUMP JUMPDEST DUP1 PUSH1 0x1F ADD PUSH1 0x20 DUP1 SWAP2 DIV MUL PUSH1 0x20 ADD PUSH1 0x40 MLOAD SWAP1 DUP2 ADD PUSH1 0x40 MSTORE DUP1 SWAP3 SWAP2 SWAP1 DUP2 DUP2 MSTORE PUSH1 0x20 ADD DUP3 DUP1 SLOAD PUSH2 0x113D SWAP1 PUSH2 0x1BFF JUMP JUMPDEST DUP1 ISZERO PUSH2 0x118A JUMPI DUP1 PUSH1 0x1F LT PUSH2 0x115F JUMPI PUSH2 0x100 DUP1 DUP4 SLOAD DIV MUL DUP4 MSTORE SWAP2 PUSH1 0x20 ADD SWAP2 PUSH2 0x118A JUMP JUMPDEST DUP3 ADD SWAP2 SWAP1 PUSH1 0x0 MSTORE PUSH1 0x20 PUSH1 0x0 KECCAK256 SWAP1 JUMPDEST DUP2 SLOAD DUP2 MSTORE SWAP1 PUSH1 0x1 ADD SWAP1 PUSH1 0x20 ADD DUP1 DUP4 GT PUSH2 0x116D JUMPI DUP3 SWAP1 SUB PUSH1 0x1F AND DUP3 ADD SWAP2 JUMPDEST POP POP POP SWAP2 DUP4 MSTORE POP POP PUSH1 0x5 SWAP2 SWAP1 SWAP2 ADD SLOAD PUSH1 0xFF AND ISZERO ISZERO PUSH1 0x20 SWAP1 SWAP2 ADD MSTORE SWAP3 SWAP2 POP POP JUMP JUMPDEST PUSH32 0x65D7A28E3265B37A6474929F336521B332C1681B933F6CB9F3376673440D862A PUSH2 0x11D4 DUP2 PUSH2 0x15A9 JUMP JUMPDEST PUSH2 0xFF8 PUSH2 0x1750 JUMP JUMPDEST PUSH1 0x8 DUP2 DUP2 SLOAD DUP2 LT PUSH2 0x11EC JUMPI PUSH1 0x0 DUP1 REVERT JUMPDEST PUSH1 0x0 SWAP2 DUP3 MSTORE PUSH1 0x20 SWAP1 SWAP2 KECCAK256 PUSH1 0x6 SWAP1 SWAP2 MUL ADD DUP1 SLOAD PUSH1 0x1 DUP3 ADD SLOAD PUSH1 0x2 DUP4 ADD SLOAD PUSH1 0x3 DUP5 ADD SLOAD PUSH1 0x4 DUP6 ADD DUP1 SLOAD PUSH1 0x1 PUSH1 0x1 PUSH1 0xA0 SHL SUB SWAP1 SWAP6 AND SWAP7 POP SWAP3 SWAP5 SWAP2 SWAP4 SWAP1 SWAP3 SWAP1 PUSH2 0x1230 SWAP1 PUSH2 0x1BFF JUMP JUMPDEST DUP1 PUSH1 0x1F ADD PUSH1 0x20 DUP1 SWAP2 DIV MUL PUSH1 0x20 ADD PUSH1 0x40 MLOAD SWAP1 DUP2 ADD PUSH1 0x40 MSTORE DUP1 SWAP3 SWAP2 SWAP1 DUP2 DUP2 MSTORE PUSH1 0x20 ADD DUP3 DUP1 SLOAD PUSH2 0x125C SWAP1 PUSH2 0x1BFF JUMP JUMPDEST DUP1 ISZERO PUSH2 0x12A9 JUMPI DUP1 PUSH1 0x1F LT PUSH2 0x127E JUMPI PUSH2 0x100 DUP1 DUP4 SLOAD DIV MUL DUP4 MSTORE SWAP2 PUSH1 0x20 ADD SWAP2 PUSH2 0x12A9 JUMP JUMPDEST DUP3 ADD SWAP2 SWAP1 PUSH1 0x0 MSTORE PUSH1 0x20 PUSH1 0x0 KECCAK256 SWAP1 JUMPDEST DUP2 SLOAD DUP2 MSTORE SWAP1 PUSH1 0x1 ADD SWAP1 PUSH1 0x20 ADD DUP1 DUP4 GT PUSH2 0x128C JUMPI DUP3 SWAP1 SUB PUSH1 0x1F AND DUP3 ADD SWAP2 JUMPDEST POP POP POP PUSH1 0x5 SWAP1 SWAP4 ADD SLOAD SWAP2 SWAP3 POP POP PUSH1 0xFF AND DUP7 JUMP JUMPDEST PUSH1 0x0 SWAP2 DUP3 MSTORE PUSH1 0x20 DUP3 DUP2 MSTORE PUSH1 0x40 DUP1 DUP5 KECCAK256 PUSH1 0x1 PUSH1 0x1 PUSH1 0xA0 SHL SUB SWAP4 SWAP1 SWAP4 AND DUP5 MSTORE SWAP2 SWAP1 MSTORE SWAP1 KECCAK256 SLOAD PUSH1 0xFF AND SWAP1 JUMP JUMPDEST PUSH1 0x0 PUSH2 0x12F0 DUP2 PUSH2 0x15A9 JUMP JUMPDEST PUSH2 0x1F4 DUP3 GT ISZERO PUSH2 0x1339 JUMPI PUSH1 0x40 MLOAD PUSH3 0x461BCD PUSH1 0xE5 SHL DUP2 MSTORE PUSH1 0x20 PUSH1 0x4 DUP3 ADD MSTORE PUSH1 0x14 PUSH1 0x24 DUP3 ADD MSTORE PUSH20 0x84E4D2C8CECA7440CCCACA40E8DEDE40D0D2CED PUSH1 0x63 SHL PUSH1 0x44 DUP3 ADD MSTORE PUSH1 0x64 ADD PUSH2 0x5A1 JUMP JUMPDEST PUSH1 0x5 DUP1 SLOAD SWAP1 DUP4 SWAP1 SSTORE PUSH1 0x40 DUP1 MLOAD DUP3 DUP2 MSTORE PUSH1 0x20 DUP2 ADD DUP6 SWAP1 MSTORE PUSH32 0x3E7AF433B010DF0902F945628A14EF63C63E1E5E8306127BDE522445A470588F SWAP2 ADD JUMPDEST PUSH1 0x40 MLOAD DUP1 SWAP2 SUB SWAP1 LOG1 POP POP POP JUMP JUMPDEST PUSH1 0x0 PUSH2 0x2710 PUSH1 0x5 SLOAD DUP4 PUSH2 0x1393 SWAP2 SWAP1 PUSH2 0x1B2F JUMP JUMPDEST PUSH2 0x513 SWAP2 SWAP1 PUSH2 0x1B46 JUMP JUMPDEST PUSH1 0x1 PUSH1 0x1 PUSH1 0xA0 SHL SUB DUP2 AND PUSH1 0x0 SWAP1 DUP2 MSTORE PUSH1 0x9 PUSH1 0x20 SWAP1 DUP2 MSTORE PUSH1 0x40 SWAP2 DUP3 SWAP1 KECCAK256 DUP1 SLOAD DUP4 MLOAD DUP2 DUP5 MUL DUP2 ADD DUP5 ADD SWAP1 SWAP5 MSTORE DUP1 DUP5 MSTORE PUSH1 0x60 SWAP4 SWAP3 DUP4 ADD DUP3 DUP3 DUP1 ISZERO PUSH2 0x13FD JUMPI PUSH1 0x20 MUL DUP3 ADD SWAP2 SWAP1 PUSH1 0x0 MSTORE PUSH1 0x20 PUSH1 0x0 KECCAK256 SWAP1 JUMPDEST DUP2 SLOAD DUP2 MSTORE PUSH1 0x20 ADD SWAP1 PUSH1 0x1 ADD SWAP1 DUP1 DUP4 GT PUSH2 0x13E9 JUMPI JUMPDEST POP POP POP POP POP SWAP1 POP SWAP2 SWAP1 POP JUMP JUMPDEST PUSH1 0x0 PUSH2 0x1414 DUP2 PUSH2 0x15A9 JUMP JUMPDEST DUP2 DUP4 LT PUSH2 0x145C JUMPI PUSH1 0x40 MLOAD PUSH3 0x461BCD PUSH1 0xE5 SHL DUP2 MSTORE PUSH1 0x20 PUSH1 0x4 DUP3 ADD MSTORE PUSH1 0x16 PUSH1 0x24 DUP3 ADD MSTORE PUSH22 0x4272696467653A20696E76616C6964206C696D697473 PUSH1 0x50 SHL PUSH1 0x44 DUP3 ADD MSTORE PUSH1 0x64 ADD PUSH2 0x5A1 JUMP JUMPDEST PUSH1 0x3 DUP4 SWAP1 SSTORE PUSH1 0x4 DUP3 SWAP1 SSTORE PUSH1 0x40 DUP1 MLOAD DUP5 DUP2 MSTORE PUSH1 0x20 DUP2 ADD DUP5 SWAP1 MSTORE PUSH32 0xCFC62648BFE6689BFDF06F50D3233F77D9E91B33D62E0B52350865779CD83151 SWAP2 ADD PUSH2 0x1373 JUMP JUMPDEST PUSH1 0x9 PUSH1 0x20 MSTORE DUP2 PUSH1 0x0 MSTORE PUSH1 0x40 PUSH1 0x0 KECCAK256 DUP2 DUP2 SLOAD DUP2 LT PUSH2 0x14B8 JUMPI PUSH1 0x0 DUP1 REVERT JUMPDEST SWAP1 PUSH1 0x0 MSTORE PUSH1 0x20 PUSH1 0x0 KECCAK256 ADD PUSH1 0x0 SWAP2 POP SWAP2 POP POP SLOAD DUP2 JUMP JUMPDEST PUSH1 0x0 DUP3 DUP2 MSTORE PUSH1 0x20 DUP2 SWAP1 MSTORE PUSH1 0x40 SWAP1 KECCAK256 PUSH1 0x1 ADD SLOAD PUSH2 0x14E8 DUP2 PUSH2 0x15A9 JUMP JUMPDEST PUSH2 0xA7E DUP4 DUP4 PUSH2 0x1693 JUMP JUMPDEST PUSH1 0x0 PUSH2 0x14FD DUP2 PUSH2 0x15A9 JUMP JUMPDEST PUSH1 0x1 PUSH1 0x1 PUSH1 0xA0 SHL SUB DUP3 AND PUSH2 0x154F JUMPI PUSH1 0x40 MLOAD PUSH3 0x461BCD PUSH1 0xE5 SHL DUP2 MSTORE PUSH1 0x20 PUSH1 0x4 DUP3 ADD MSTORE PUSH1 0x19 PUSH1 0x24 DUP3 ADD MSTORE PUSH25 0x109C9A5919D94E881A5B9D985B1A59081C9958DA5C1A595B9D PUSH1 0x3A SHL PUSH1 0x44 DUP3 ADD MSTORE PUSH1 0x64 ADD PUSH2 0x5A1 JUMP JUMPDEST PUSH1 0x6 DUP1 SLOAD PUSH1 0x1 PUSH1 0x1 PUSH1 0xA0 SHL SUB DUP5 DUP2 AND PUSH1 0x1 PUSH1 0x1 PUSH1 0xA0 SHL SUB NOT DUP4 AND DUP2 OR SWAP1 SWAP4 SSTORE PUSH1 0x40 DUP1 MLOAD SWAP2 SWAP1 SWAP3 AND DUP1 DUP3 MSTORE PUSH1 0x20 DUP3 ADD SWAP4 SWAP1 SWAP4 MSTORE PUSH32 0xAAEBCF1BFA00580E41D966056B48521FA9F202645C86D4DDF28113E617C1B1D3 SWAP2 ADD PUSH2 0x1373 JUMP JUMPDEST PUSH2 0xFF8 DUP2 CALLER PUSH2 0x178B JUMP JUMPDEST PUSH1 0x1 SLOAD PUSH1 0xFF AND ISZERO PUSH2 0x15D7 JUMPI PUSH1 0x40 MLOAD PUSH4 0xD93C0665 PUSH1 0xE0 SHL DUP2 MSTORE PUSH1 0x4 ADD PUSH1 0x40 MLOAD DUP1 SWAP2 SUB SWAP1 REVERT JUMPDEST JUMP JUMPDEST PUSH1 0x2 DUP1 SLOAD SUB PUSH2 0x15FB JUMPI PUSH1 0x40 MLOAD PUSH4 0x3EE5AEB5 PUSH1 0xE0 SHL DUP2 MSTORE PUSH1 0x4 ADD PUSH1 0x40 MLOAD DUP1 SWAP2 SUB SWAP1 REVERT JUMPDEST PUSH1 0x2 DUP1 SSTORE JUMP JUMPDEST PUSH1 0x0 PUSH2 0x160D DUP4 DUP4 PUSH2 0x12BC JUMP JUMPDEST PUSH2 0x168B JUMPI PUSH1 0x0 DUP4 DUP2 MSTORE PUSH1 0x20 DUP2 DUP2 MSTORE PUSH1 0x40 DUP1 DUP4 KECCAK256 PUSH1 0x1 PUSH1 0x1 PUSH1 0xA0 SHL SUB DUP7 AND DUP5 MSTORE SWAP1 SWAP2 MSTORE SWAP1 KECCAK256 DUP1 SLOAD PUSH1 0xFF NOT AND PUSH1 0x1 OR SWAP1 SSTORE PUSH2 0x1643 CALLER SWAP1 JUMP JUMPDEST PUSH1 0x1 PUSH1 0x1 PUSH1 0xA0 SHL SUB AND DUP3 PUSH1 0x1 PUSH1 0x1 PUSH1 0xA0 SHL SUB AND DUP5 PUSH32 0x2F8788117E7EFF1D82E926EC794901D17C78024A50270940304540A733656F0D PUSH1 0x40 MLOAD PUSH1 0x40 MLOAD DUP1 SWAP2 SUB SWAP1 LOG4 POP PUSH1 0x1 PUSH2 0x513 JUMP JUMPDEST POP PUSH1 0x0 PUSH2 0x513 JUMP JUMPDEST PUSH1 0x0 PUSH2 0x169F DUP4 DUP4 PUSH2 0x12BC JUMP JUMPDEST ISZERO PUSH2 0x168B JUMPI PUSH1 0x0 DUP4 DUP2 MSTORE PUSH1 0x20 DUP2 DUP2 MSTORE PUSH1 0x40 DUP1 DUP4 KECCAK256 PUSH1 0x1 PUSH1 0x1 PUSH1 0xA0 SHL SUB DUP7 AND DUP1 DUP6 MSTORE SWAP3 MSTORE DUP1 DUP4 KECCAK256 DUP1 SLOAD PUSH1 0xFF NOT AND SWAP1 SSTORE MLOAD CALLER SWAP3 DUP7 SWAP2 PUSH32 0xF6391F5C32D9C69D2A47EA670B442974B53935D1EDC7FD64EB21E047A839171B SWAP2 SWAP1 LOG4 POP PUSH1 0x1 PUSH2 0x513 JUMP JUMPDEST PUSH2 0x1706 PUSH2 0x17C8 JUMP JUMPDEST PUSH1 0x1 DUP1 SLOAD PUSH1 0xFF NOT AND SWAP1 SSTORE PUSH32 0x5DB9EE0A495BF2E6FF9C91A7834C1BA4FDD244A5E8AA4E537BD38AEAE4B073AA CALLER JUMPDEST PUSH1 0x40 MLOAD PUSH1 0x1 PUSH1 0x1 PUSH1 0xA0 SHL SUB SWAP1 SWAP2 AND DUP2 MSTORE PUSH1 0x20 ADD PUSH1 0x40 MLOAD DUP1 SWAP2 SUB SWAP1 LOG1 JUMP JUMPDEST PUSH2 0x1758 PUSH2 0x15B3 JUMP JUMPDEST PUSH1 0x1 DUP1 SLOAD PUSH1 0xFF NOT AND DUP2 OR SWAP1 SSTORE PUSH32 0x62E78CEA01BEE320CD4E420270B5EA74000D11B0C9F74754EBDBFC544B05A258 CALLER PUSH2 0x1733 JUMP JUMPDEST PUSH2 0x1795 DUP3 DUP3 PUSH2 0x12BC JUMP JUMPDEST PUSH2 0x17C4 JUMPI PUSH1 0x40 MLOAD PUSH4 0xE2517D3F PUSH1 0xE0 SHL DUP2 MSTORE PUSH1 0x1 PUSH1 0x1 PUSH1 0xA0 SHL SUB DUP3 AND PUSH1 0x4 DUP3 ADD MSTORE PUSH1 0x24 DUP2 ADD DUP4 SWAP1 MSTORE PUSH1 0x44 ADD PUSH2 0x5A1 JUMP JUMPDEST POP POP JUMP JUMPDEST PUSH1 0x1 SLOAD PUSH1 0xFF AND PUSH2 0x15D7 JUMPI PUSH1 0x40 MLOAD PUSH4 0x8DFC202B PUSH1 0xE0 SHL DUP2 MSTORE PUSH1 0x4 ADD PUSH1 0x40 MLOAD DUP1 SWAP2 SUB SWAP1 REVERT JUMPDEST PUSH1 0x0 PUSH1 0x20 DUP3 DUP5 SUB SLT ISZERO PUSH2 0x17FD JUMPI PUSH1 0x0 DUP1 REVERT JUMPDEST DUP2 CALLDATALOAD PUSH1 0x1 PUSH1 0x1 PUSH1 0xE0 SHL SUB NOT DUP2 AND DUP2 EQ PUSH2 0x1815 JUMPI PUSH1 0x0 DUP1 REVERT JUMPDEST SWAP4 SWAP3 POP POP POP JUMP JUMPDEST PUSH1 0x0 PUSH1 0x20 DUP3 DUP5 SUB SLT ISZERO PUSH2 0x182E JUMPI PUSH1 0x0 DUP1 REVERT JUMPDEST POP CALLDATALOAD SWAP2 SWAP1 POP JUMP JUMPDEST DUP1 CALLDATALOAD PUSH1 0x1 PUSH1 0x1 PUSH1 0xA0 SHL SUB DUP2 AND DUP2 EQ PUSH2 0x184C JUMPI PUSH1 0x0 DUP1 REVERT JUMPDEST SWAP2 SWAP1 POP JUMP JUMPDEST PUSH1 0x0 DUP1 DUP4 PUSH1 0x1F DUP5 ADD SLT PUSH2 0x1863 JUMPI PUSH1 0x0 DUP1 REVERT JUMPDEST POP DUP2 CALLDATALOAD PUSH8 0xFFFFFFFFFFFFFFFF DUP2 GT ISZERO PUSH2 0x187B JUMPI PUSH1 0x0 DUP1 REVERT JUMPDEST PUSH1 0x20 DUP4 ADD SWAP2 POP DUP4 PUSH1 0x20 DUP3 DUP6 ADD ADD GT ISZERO PUSH2 0x1893 JUMPI PUSH1 0x0 DUP1 REVERT JUMPDEST SWAP3 POP SWAP3 SWAP1 POP JUMP JUMPDEST PUSH1 0x0 DUP1 PUSH1 0x0 DUP1 PUSH1 0x60 DUP6 DUP8 SUB SLT ISZERO PUSH2 0x18B0 JUMPI PUSH1 0x0 DUP1 REVERT JUMPDEST PUSH2 0x18B9 DUP6 PUSH2 0x1835 JUMP JUMPDEST SWAP4 POP PUSH1 0x20 DUP6 ADD CALLDATALOAD SWAP3 POP PUSH1 0x40 DUP6 ADD CALLDATALOAD PUSH8 0xFFFFFFFFFFFFFFFF DUP2 GT ISZERO PUSH2 0x18DC JUMPI PUSH1 0x0 DUP1 REVERT JUMPDEST PUSH2 0x18E8 DUP8 DUP3 DUP9 ADD PUSH2 0x1851 JUMP JUMPDEST SWAP6 SWAP9 SWAP5 SWAP8 POP SWAP6 POP POP POP POP JUMP JUMPDEST PUSH1 0x0 DUP1 PUSH1 0x40 DUP4 DUP6 SUB SLT ISZERO PUSH2 0x1907 JUMPI PUSH1 0x0 DUP1 REVERT JUMPDEST DUP3 CALLDATALOAD SWAP2 POP PUSH2 0x1917 PUSH1 0x20 DUP5 ADD PUSH2 0x1835 JUMP JUMPDEST SWAP1 POP SWAP3 POP SWAP3 SWAP1 POP JUMP JUMPDEST PUSH1 0x0 DUP1 PUSH1 0x0 PUSH1 0x40 DUP5 DUP7 SUB SLT ISZERO PUSH2 0x1935 JUMPI PUSH1 0x0 DUP1 REVERT JUMPDEST DUP4 CALLDATALOAD SWAP3 POP PUSH1 0x20 DUP5 ADD CALLDATALOAD PUSH8 0xFFFFFFFFFFFFFFFF DUP2 GT ISZERO PUSH2 0x1953 JUMPI PUSH1 0x0 DUP1 REVERT JUMPDEST PUSH2 0x195F DUP7 DUP3 DUP8 ADD PUSH2 0x1851 JUMP JUMPDEST SWAP5 SWAP8 SWAP1 SWAP7 POP SWAP4 SWAP5 POP POP POP POP JUMP JUMPDEST PUSH1 0x0 DUP2 MLOAD DUP1 DUP5 MSTORE PUSH1 0x0 JUMPDEST DUP2 DUP2 LT ISZERO PUSH2 0x1992 JUMPI PUSH1 0x20 DUP2 DUP6 ADD DUP2 ADD MLOAD DUP7 DUP4 ADD DUP3 ADD MSTORE ADD PUSH2 0x1976 JUMP JUMPDEST POP PUSH1 0x0 PUSH1 0x20 DUP3 DUP7 ADD ADD MSTORE PUSH1 0x20 PUSH1 0x1F NOT PUSH1 0x1F DUP4 ADD AND DUP6 ADD ADD SWAP2 POP POP SWAP3 SWAP2 POP POP JUMP JUMPDEST PUSH1 0x20 DUP2 MSTORE PUSH1 0x1 DUP1 PUSH1 0xA0 SHL SUB DUP3 MLOAD AND PUSH1 0x20 DUP3 ADD MSTORE PUSH1 0x20 DUP3 ADD MLOAD PUSH1 0x40 DUP3 ADD MSTORE PUSH1 0x40 DUP3 ADD MLOAD PUSH1 0x60 DUP3 ADD MSTORE PUSH1 0x60 DUP3 ADD MLOAD PUSH1 0x80 DUP3 ADD MSTORE PUSH1 0x0 PUSH1 0x80 DUP4 ADD MLOAD PUSH1 0xC0 PUSH1 0xA0 DUP5 ADD MSTORE PUSH2 0x19FE PUSH1 0xE0 DUP5 ADD DUP3 PUSH2 0x196C JUMP JUMPDEST SWAP1 POP PUSH1 0xA0 DUP5 ADD MLOAD ISZERO ISZERO PUSH1 0xC0 DUP5 ADD MSTORE DUP1 SWAP2 POP POP SWAP3 SWAP2 POP POP JUMP JUMPDEST PUSH1 0x1 DUP1 PUSH1 0xA0 SHL SUB DUP8 AND DUP2 MSTORE DUP6 PUSH1 0x20 DUP3 ADD MSTORE DUP5 PUSH1 0x40 DUP3 ADD MSTORE DUP4 PUSH1 0x60 DUP3 ADD MSTORE PUSH1 0xC0 PUSH1 0x80 DUP3 ADD MSTORE PUSH1 0x0 PUSH2 0x1A49 PUSH1 0xC0 DUP4 ADD DUP6 PUSH2 0x196C JUMP JUMPDEST SWAP1 POP DUP3 ISZERO ISZERO PUSH1 0xA0 DUP4 ADD MSTORE SWAP8 SWAP7 POP POP POP POP POP POP POP JUMP JUMPDEST PUSH1 0x0 PUSH1 0x20 DUP3 DUP5 SUB SLT ISZERO PUSH2 0x1A70 JUMPI PUSH1 0x0 DUP1 REVERT JUMPDEST PUSH2 0x1815 DUP3 PUSH2 0x1835 JUMP JUMPDEST PUSH1 0x20 DUP1 DUP3 MSTORE DUP3 MLOAD DUP3 DUP3 ADD DUP2 SWAP1 MSTORE PUSH1 0x0 SWAP2 SWAP1 DUP5 DUP3 ADD SWAP1 PUSH1 0x40 DUP6 ADD SWAP1 DUP5 JUMPDEST DUP2 DUP2 LT ISZERO PUSH2 0x1AB1 JUMPI DUP4 MLOAD DUP4 MSTORE SWAP3 DUP5 ADD SWAP3 SWAP2 DUP5 ADD SWAP2 PUSH1 0x1 ADD PUSH2 0x1A95 JUMP JUMPDEST POP SWAP1 SWAP7 SWAP6 POP POP POP POP POP POP JUMP JUMPDEST PUSH1 0x0 DUP1 PUSH1 0x40 DUP4 DUP6 SUB SLT ISZERO PUSH2 0x1AD0 JUMPI PUSH1 0x0 DUP1 REVERT JUMPDEST POP POP DUP1 CALLDATALOAD SWAP3 PUSH1 0x20 SWAP1 SWAP2 ADD CALLDATALOAD SWAP2 POP JUMP JUMPDEST PUSH1 0x0 DUP1 PUSH1 0x40 DUP4 DUP6 SUB SLT ISZERO PUSH2 0x1AF2 JUMPI PUSH1 0x0 DUP1 REVERT JUMPDEST PUSH2 0x1AFB DUP4 PUSH2 0x1835 JUMP JUMPDEST SWAP5 PUSH1 0x20 SWAP4 SWAP1 SWAP4 ADD CALLDATALOAD SWAP4 POP POP POP JUMP JUMPDEST DUP2 DUP4 DUP3 CALLDATACOPY PUSH1 0x0 SWAP2 ADD SWAP1 DUP2 MSTORE SWAP2 SWAP1 POP JUMP JUMPDEST PUSH4 0x4E487B71 PUSH1 0xE0 SHL PUSH1 0x0 MSTORE PUSH1 0x11 PUSH1 0x4 MSTORE PUSH1 0x24 PUSH1 0x0 REVERT JUMPDEST DUP1 DUP3 MUL DUP2 ISZERO DUP3 DUP3 DIV DUP5 EQ OR PUSH2 0x513 JUMPI PUSH2 0x513 PUSH2 0x1B19 JUMP JUMPDEST PUSH1 0x0 DUP3 PUSH2 0x1B63 JUMPI PUSH4 0x4E487B71 PUSH1 0xE0 SHL PUSH1 0x0 MSTORE PUSH1 0x12 PUSH1 0x4 MSTORE PUSH1 0x24 PUSH1 0x0 REVERT JUMPDEST POP DIV SWAP1 JUMP JUMPDEST DUP2 DUP2 SUB DUP2 DUP2 GT ISZERO PUSH2 0x513 JUMPI PUSH2 0x513 PUSH2 0x1B19 JUMP JUMPDEST DUP2 DUP4 MSTORE DUP2 DUP2 PUSH1 0x20 DUP6 ADD CALLDATACOPY POP PUSH1 0x0 DUP3 DUP3 ADD PUSH1 0x20 SWAP1 DUP2 ADD SWAP2 SWAP1 SWAP2 MSTORE PUSH1 0x1F SWAP1 SWAP2 ADD PUSH1 0x1F NOT AND SWAP1 SWAP2 ADD ADD SWAP1 JUMP JUMPDEST PUSH1 0x1 DUP1 PUSH1 0xA0 SHL SUB DUP6 AND DUP2 MSTORE DUP4 PUSH1 0x20 DUP3 ADD MSTORE PUSH1 0x60 PUSH1 0x40 DUP3 ADD MSTORE PUSH1 0x0 PUSH2 0x1BCC PUSH1 0x60 DUP4 ADD DUP5 DUP7 PUSH2 0x1B7B JUMP JUMPDEST SWAP7 SWAP6 POP POP POP POP POP POP JUMP JUMPDEST DUP1 DUP3 ADD DUP1 DUP3 GT ISZERO PUSH2 0x513 JUMPI PUSH2 0x513 PUSH2 0x1B19 JUMP JUMPDEST PUSH4 0x4E487B71 PUSH1 0xE0 SHL PUSH1 0x0 MSTORE PUSH1 0x41 PUSH1 0x4 MSTORE PUSH1 0x24 PUSH1 0x0 REVERT JUMPDEST PUSH1 0x1 DUP2 DUP2 SHR SWAP1 DUP3 AND DUP1 PUSH2 0x1C13 JUMPI PUSH1 0x7F DUP3 AND SWAP2 POP JUMPDEST PUSH1 0x20 DUP3 LT DUP2 SUB PUSH2 0x1C33 JUMPI PUSH4 0x4E487B71 PUSH1 0xE0 SHL PUSH1 0x0 MSTORE PUSH1 0x22 PUSH1 0x4 MSTORE PUSH1 0x24 PUSH1 0x0 REVERT JUMPDEST POP SWAP2 SWAP1 POP JUMP JUMPDEST PUSH1 0x1F DUP3 GT ISZERO PUSH2 0xF8E JUMPI PUSH1 0x0 DUP2 DUP2 MSTORE PUSH1 0x20 DUP2 KECCAK256 PUSH1 0x1F DUP6 ADD PUSH1 0x5 SHR DUP2 ADD PUSH1 0x20 DUP7 LT ISZERO PUSH2 0x1C60 JUMPI POP DUP1 JUMPDEST PUSH1 0x1F DUP6 ADD PUSH1 0x5 SHR DUP3 ADD SWAP2 POP JUMPDEST DUP2 DUP2 LT ISZERO PUSH2 0x1C7F JUMPI DUP3 DUP2 SSTORE PUSH1 0x1 ADD PUSH2 0x1C6C JUMP JUMPDEST POP POP POP POP POP POP JUMP JUMPDEST DUP2 MLOAD PUSH8 0xFFFFFFFFFFFFFFFF DUP2 GT ISZERO PUSH2 0x1CA1 JUMPI PUSH2 0x1CA1 PUSH2 0x1BE9 JUMP JUMPDEST PUSH2 0x1CB5 DUP2 PUSH2 0x1CAF DUP5 SLOAD PUSH2 0x1BFF JUMP JUMPDEST DUP5 PUSH2 0x1C39 JUMP JUMPDEST PUSH1 0x20 DUP1 PUSH1 0x1F DUP4 GT PUSH1 0x1 DUP2 EQ PUSH2 0x1CEA JUMPI PUSH1 0x0 DUP5 ISZERO PUSH2 0x1CD2 JUMPI POP DUP6 DUP4 ADD MLOAD JUMPDEST PUSH1 0x0 NOT PUSH1 0x3 DUP7 SWAP1 SHL SHR NOT AND PUSH1 0x1 DUP6 SWAP1 SHL OR DUP6 SSTORE PUSH2 0x1C7F JUMP JUMPDEST PUSH1 0x0 DUP6 DUP2 MSTORE PUSH1 0x20 DUP2 KECCAK256 PUSH1 0x1F NOT DUP7 AND SWAP2 JUMPDEST DUP3 DUP2 LT ISZERO PUSH2 0x1D19 JUMPI DUP9 DUP7 ADD MLOAD DUP3 SSTORE SWAP5 DUP5 ADD SWAP5 PUSH1 0x1 SWAP1 SWAP2 ADD SWAP1 DUP5 ADD PUSH2 0x1CFA JUMP JUMPDEST POP DUP6 DUP3 LT ISZERO PUSH2 0x1D37 JUMPI DUP8 DUP6 ADD MLOAD PUSH1 0x0 NOT PUSH1 0x3 DUP9 SWAP1 SHL PUSH1 0xF8 AND SHR NOT AND DUP2 SSTORE JUMPDEST POP POP POP POP POP PUSH1 0x1 SWAP1 DUP2 SHL ADD SWAP1 SSTORE POP JUMP JUMPDEST DUP5 DUP2 MSTORE DUP4 PUSH1 0x20 DUP3 ADD MSTORE PUSH1 0x60 PUSH1 0x40 DUP3 ADD MSTORE PUSH1 0x0 PUSH2 0x1BCC PUSH1 0x60 DUP4 ADD DUP5 DUP7 PUSH2 0x1B7B JUMP JUMPDEST PUSH1 0x0 PUSH1 0x20 DUP3 DUP5 SUB SLT ISZERO PUSH2 0x1D79 JUMPI PUSH1 0x0 DUP1 REVERT JUMPDEST DUP2 MLOAD DUP1 ISZERO ISZERO DUP2 EQ PUSH2 0x1815 JUMPI PUSH1 0x0 DUP1 REVERT JUMPDEST PUSH4 0x4E487B71 PUSH1 0xE0 SHL PUSH1 0x0 MSTORE PUSH1 0x32 PUSH1 0x4 MSTORE PUSH1 0x24 PUSH1 0x0 REVERT INVALID LOG2 PUSH5 0x6970667358 0x22 SLT KECCAK256 0xFC DUP7 TIMESTAMP JUMP 0xB2 0xD1 DUP12 0xB1 0x23 PUSH15 0x4E6AF19971E2514571851AAB5A76E9 0xCB DUP7 STOP 0xD1 SWAP11 0xCA 0xAE PUSH5 0x736F6C6343 STOP ADDMOD EQ STOP CALLER "},"methodIdentifiers":{"DEFAULT_ADMIN_ROLE()":"a217fddf","MAX_FEE()":"bc063e1a","PAUSER_ROLE()":"e63ab1e9","RELAYER_ROLE()":"926d7d7f","bridgeFee()":"82b12dd7","bridgeHistory(uint256)":"8e9c234a","bridgeToEdgeAI(uint256,string)":"305c4142","calculateFee(uint256)":"99a5d747","feeRecipient()":"46904840","getBridgeRecord(uint256)":"82c4f73e","getBridgeStats()":"2165cbb7","getRoleAdmin(bytes32)":"248a9ca3","getUserBridgeHistory(address)":"9aa6188f","grantRole(bytes32,address)":"2f2ff15d","hasRole(bytes32,address)":"91d14854","maxBridgeAmount()":"60132c9c","minBridgeAmount()":"c3c22475","pause()":"8456cb59","paused()":"5c975abb","processBridgeToEVM(address,uint256,string)":"2b8681a7","processedHashes(bytes32)":"07d9c534","renounceRole(bytes32,address)":"36568abe","revokeRole(bytes32,address)":"d547741f","setBridgeFee(uint256)":"998cdf83","setBridgeLimits(uint256,uint256)":"a3e13d81","setFeeRecipient(address)":"e74b981b","supportsInterface(bytes4)":"01ffc9a7","totalBridgedToEVM()":"21e495a4","totalBridgedToEdgeAI()":"dad39dcf","totalFeesCollected()":"60c6d8ae","unpause()":"3f4ba83a","userBridgeIndices(address,uint256)":"b48c4b45","wEDGE()":"9aac7a45"}}}}}